{
  "_format": "hh-sol-artifact-1",
  "contractName": "Aerolineas",
  "sourceName": "contracts/Aerolineas.sol",
  "abi": [
    {
      "inputs": [
        {
          "internalType": "string",
          "name": "_name",
          "type": "string"
        },
        {
          "internalType": "string",
          "name": "_symbol",
          "type": "string"
        },
        {
          "internalType": "uint8",
          "name": "_feeCancellation",
          "type": "uint8"
        },
        {
          "internalType": "uint8",
          "name": "_feeResale",
          "type": "uint8"
        }
      ],
      "stateMutability": "nonpayable",
      "type": "constructor"
    },
    {
      "inputs": [],
      "name": "FlightAlreadyDisabled",
      "type": "error"
    },
    {
      "inputs": [],
      "name": "FlightAlreadyEnabled",
      "type": "error"
    },
    {
      "inputs": [],
      "name": "FlightNotAvailable",
      "type": "error"
    },
    {
      "inputs": [],
      "name": "IncorrectPaymentAmount",
      "type": "error"
    },
    {
      "inputs": [],
      "name": "InsufficientSeatsProvided",
      "type": "error"
    },
    {
      "inputs": [],
      "name": "InvalidAddressProvided",
      "type": "error"
    },
    {
      "inputs": [],
      "name": "InvalidPercentageNumber",
      "type": "error"
    },
    {
      "inputs": [],
      "name": "InvalidPercentageNumber",
      "type": "error"
    },
    {
      "inputs": [],
      "name": "InvalidPriceProvided",
      "type": "error"
    },
    {
      "inputs": [],
      "name": "NoSeatLeft",
      "type": "error"
    },
    {
      "inputs": [],
      "name": "NotOwnReservation",
      "type": "error"
    },
    {
      "inputs": [],
      "name": "NotOwner",
      "type": "error"
    },
    {
      "inputs": [],
      "name": "NotReservationOwner",
      "type": "error"
    },
    {
      "inputs": [],
      "name": "RefundFailed",
      "type": "error"
    },
    {
      "inputs": [],
      "name": "ReservationAlreadyTakenOnThisFlight",
      "type": "error"
    },
    {
      "inputs": [],
      "name": "SeatAlreadyAvailable",
      "type": "error"
    },
    {
      "inputs": [],
      "name": "SeatNotAvailable",
      "type": "error"
    },
    {
      "inputs": [],
      "name": "SeatOnResaleOrResold",
      "type": "error"
    },
    {
      "inputs": [],
      "name": "TransferFailed",
      "type": "error"
    },
    {
      "anonymous": false,
      "inputs": [
        {
          "indexed": true,
          "internalType": "address",
          "name": "owner",
          "type": "address"
        },
        {
          "indexed": true,
          "internalType": "address",
          "name": "approved",
          "type": "address"
        },
        {
          "indexed": true,
          "internalType": "uint256",
          "name": "tokenId",
          "type": "uint256"
        }
      ],
      "name": "Approval",
      "type": "event"
    },
    {
      "anonymous": false,
      "inputs": [
        {
          "indexed": true,
          "internalType": "address",
          "name": "owner",
          "type": "address"
        },
        {
          "indexed": true,
          "internalType": "address",
          "name": "operator",
          "type": "address"
        },
        {
          "indexed": false,
          "internalType": "bool",
          "name": "approved",
          "type": "bool"
        }
      ],
      "name": "ApprovalForAll",
      "type": "event"
    },
    {
      "anonymous": false,
      "inputs": [
        {
          "indexed": true,
          "internalType": "uint256",
          "name": "flightId",
          "type": "uint256"
        },
        {
          "indexed": false,
          "internalType": "uint24",
          "name": "flightNumber",
          "type": "uint24"
        },
        {
          "indexed": false,
          "internalType": "uint24",
          "name": "from",
          "type": "uint24"
        },
        {
          "indexed": false,
          "internalType": "uint24",
          "name": "to",
          "type": "uint24"
        },
        {
          "indexed": false,
          "internalType": "uint64",
          "name": "departure",
          "type": "uint64"
        },
        {
          "indexed": false,
          "internalType": "uint64",
          "name": "arrival",
          "type": "uint64"
        },
        {
          "indexed": false,
          "internalType": "uint256",
          "name": "totalSeats",
          "type": "uint256"
        }
      ],
      "name": "FlightCreated",
      "type": "event"
    },
    {
      "anonymous": false,
      "inputs": [
        {
          "indexed": false,
          "internalType": "uint256",
          "name": "flightId",
          "type": "uint256"
        }
      ],
      "name": "FlightDisabled",
      "type": "event"
    },
    {
      "anonymous": false,
      "inputs": [
        {
          "indexed": false,
          "internalType": "uint256",
          "name": "flightId",
          "type": "uint256"
        }
      ],
      "name": "FlightEnabled",
      "type": "event"
    },
    {
      "anonymous": false,
      "inputs": [
        {
          "indexed": true,
          "internalType": "uint256",
          "name": "reservationId",
          "type": "uint256"
        },
        {
          "indexed": false,
          "internalType": "address",
          "name": "passenger",
          "type": "address"
        }
      ],
      "name": "ReservationCanceled",
      "type": "event"
    },
    {
      "anonymous": false,
      "inputs": [
        {
          "indexed": true,
          "internalType": "uint256",
          "name": "reservationId",
          "type": "uint256"
        },
        {
          "indexed": true,
          "internalType": "uint256",
          "name": "flightId",
          "type": "uint256"
        },
        {
          "indexed": false,
          "internalType": "uint256",
          "name": "seatId",
          "type": "uint256"
        },
        {
          "indexed": false,
          "internalType": "address",
          "name": "passenger",
          "type": "address"
        }
      ],
      "name": "ReservationMade",
      "type": "event"
    },
    {
      "anonymous": false,
      "inputs": [
        {
          "indexed": true,
          "internalType": "uint256",
          "name": "reservationId",
          "type": "uint256"
        },
        {
          "indexed": false,
          "internalType": "uint256",
          "name": "_resalePrice",
          "type": "uint256"
        },
        {
          "indexed": false,
          "internalType": "address",
          "name": "passenger",
          "type": "address"
        }
      ],
      "name": "ReservationOnResale",
      "type": "event"
    },
    {
      "anonymous": false,
      "inputs": [
        {
          "indexed": true,
          "internalType": "uint256",
          "name": "reservationId",
          "type": "uint256"
        },
        {
          "indexed": true,
          "internalType": "address",
          "name": "oldOwner",
          "type": "address"
        },
        {
          "indexed": true,
          "internalType": "address",
          "name": "newOwner",
          "type": "address"
        }
      ],
      "name": "ReservationTransferred",
      "type": "event"
    },
    {
      "anonymous": false,
      "inputs": [
        {
          "indexed": true,
          "internalType": "address",
          "name": "from",
          "type": "address"
        },
        {
          "indexed": true,
          "internalType": "address",
          "name": "to",
          "type": "address"
        },
        {
          "indexed": true,
          "internalType": "uint256",
          "name": "tokenId",
          "type": "uint256"
        }
      ],
      "name": "Transfer",
      "type": "event"
    },
    {
      "anonymous": false,
      "inputs": [
        {
          "indexed": true,
          "internalType": "uint256",
          "name": "reservationId",
          "type": "uint256"
        },
        {
          "indexed": false,
          "internalType": "address",
          "name": "passenger",
          "type": "address"
        }
      ],
      "name": "UndoReservationOnResale",
      "type": "event"
    },
    {
      "inputs": [
        {
          "internalType": "address",
          "name": "to",
          "type": "address"
        },
        {
          "internalType": "uint256",
          "name": "tokenId",
          "type": "uint256"
        }
      ],
      "name": "approve",
      "outputs": [],
      "stateMutability": "nonpayable",
      "type": "function"
    },
    {
      "inputs": [
        {
          "internalType": "uint256",
          "name": "",
          "type": "uint256"
        }
      ],
      "name": "availableFlights",
      "outputs": [
        {
          "internalType": "uint256",
          "name": "",
          "type": "uint256"
        }
      ],
      "stateMutability": "view",
      "type": "function"
    },
    {
      "inputs": [
        {
          "internalType": "address",
          "name": "owner",
          "type": "address"
        }
      ],
      "name": "balanceOf",
      "outputs": [
        {
          "internalType": "uint256",
          "name": "",
          "type": "uint256"
        }
      ],
      "stateMutability": "view",
      "type": "function"
    },
    {
      "inputs": [
        {
          "internalType": "uint256",
          "name": "_reservationId",
          "type": "uint256"
        }
      ],
      "name": "cancelReservation",
      "outputs": [],
      "stateMutability": "nonpayable",
      "type": "function"
    },
    {
      "inputs": [
        {
          "internalType": "uint24",
          "name": "_flightNumber",
          "type": "uint24"
        },
        {
          "internalType": "uint24",
          "name": "_from",
          "type": "uint24"
        },
        {
          "internalType": "uint24",
          "name": "_to",
          "type": "uint24"
        },
        {
          "internalType": "uint64",
          "name": "_departure",
          "type": "uint64"
        },
        {
          "internalType": "uint64",
          "name": "_arrival",
          "type": "uint64"
        },
        {
          "components": [
            {
              "internalType": "uint8",
              "name": "column",
              "type": "uint8"
            },
            {
              "internalType": "uint8",
              "name": "row",
              "type": "uint8"
            },
            {
              "internalType": "uint256",
              "name": "price",
              "type": "uint256"
            },
            {
              "internalType": "enum AerolineasFlights.SeatStatus",
              "name": "status",
              "type": "uint8"
            }
          ],
          "internalType": "struct AerolineasFlights.Seat[]",
          "name": "_seats",
          "type": "tuple[]"
        }
      ],
      "name": "createFlight",
      "outputs": [],
      "stateMutability": "nonpayable",
      "type": "function"
    },
    {
      "inputs": [
        {
          "internalType": "uint256",
          "name": "_flightId",
          "type": "uint256"
        }
      ],
      "name": "disableFlight",
      "outputs": [],
      "stateMutability": "nonpayable",
      "type": "function"
    },
    {
      "inputs": [
        {
          "internalType": "uint256",
          "name": "_flightId",
          "type": "uint256"
        }
      ],
      "name": "enableFlight",
      "outputs": [],
      "stateMutability": "nonpayable",
      "type": "function"
    },
    {
      "inputs": [
        {
          "internalType": "uint256",
          "name": "_reservationId",
          "type": "uint256"
        },
        {
          "internalType": "address",
          "name": "_newOwner",
          "type": "address"
        }
      ],
      "name": "freeTransferReservation",
      "outputs": [],
      "stateMutability": "nonpayable",
      "type": "function"
    },
    {
      "inputs": [
        {
          "internalType": "uint256",
          "name": "tokenId",
          "type": "uint256"
        }
      ],
      "name": "getApproved",
      "outputs": [
        {
          "internalType": "address",
          "name": "",
          "type": "address"
        }
      ],
      "stateMutability": "view",
      "type": "function"
    },
    {
      "inputs": [],
      "name": "getAvailableFlights",
      "outputs": [
        {
          "internalType": "uint256[]",
          "name": "",
          "type": "uint256[]"
        }
      ],
      "stateMutability": "view",
      "type": "function"
    },
    {
      "inputs": [],
      "name": "getFees",
      "outputs": [
        {
          "internalType": "uint8",
          "name": "",
          "type": "uint8"
        },
        {
          "internalType": "uint8",
          "name": "",
          "type": "uint8"
        }
      ],
      "stateMutability": "view",
      "type": "function"
    },
    {
      "inputs": [
        {
          "internalType": "uint256",
          "name": "_flightId",
          "type": "uint256"
        }
      ],
      "name": "getFlight",
      "outputs": [
        {
          "internalType": "uint256",
          "name": "id",
          "type": "uint256"
        },
        {
          "internalType": "uint24",
          "name": "flightNumber",
          "type": "uint24"
        },
        {
          "internalType": "uint24",
          "name": "from",
          "type": "uint24"
        },
        {
          "internalType": "uint24",
          "name": "to",
          "type": "uint24"
        },
        {
          "internalType": "uint64",
          "name": "departure",
          "type": "uint64"
        },
        {
          "internalType": "uint64",
          "name": "arrival",
          "type": "uint64"
        },
        {
          "internalType": "enum AerolineasFlights.FlightStatus",
          "name": "status",
          "type": "uint8"
        },
        {
          "internalType": "uint256",
          "name": "seatsLeft",
          "type": "uint256"
        },
        {
          "internalType": "uint256",
          "name": "totalSeats",
          "type": "uint256"
        }
      ],
      "stateMutability": "view",
      "type": "function"
    },
    {
      "inputs": [],
      "name": "getReservationIdsByAddress",
      "outputs": [
        {
          "internalType": "uint256[]",
          "name": "",
          "type": "uint256[]"
        }
      ],
      "stateMutability": "view",
      "type": "function"
    },
    {
      "inputs": [
        {
          "internalType": "uint256",
          "name": "_reservationId",
          "type": "uint256"
        }
      ],
      "name": "getReservationInfoById",
      "outputs": [
        {
          "internalType": "uint256",
          "name": "reservation",
          "type": "uint256"
        },
        {
          "internalType": "uint256",
          "name": "flight",
          "type": "uint256"
        },
        {
          "internalType": "uint8",
          "name": "column",
          "type": "uint8"
        },
        {
          "internalType": "uint256",
          "name": "seat",
          "type": "uint256"
        },
        {
          "internalType": "uint256",
          "name": "price",
          "type": "uint256"
        },
        {
          "internalType": "uint8",
          "name": "row",
          "type": "uint8"
        },
        {
          "internalType": "enum AerolineasFlights.SeatStatus",
          "name": "seatStatus",
          "type": "uint8"
        },
        {
          "internalType": "uint256",
          "name": "timestamp",
          "type": "uint256"
        }
      ],
      "stateMutability": "view",
      "type": "function"
    },
    {
      "inputs": [
        {
          "internalType": "uint256",
          "name": "_flightId",
          "type": "uint256"
        }
      ],
      "name": "getSeatsFromFlight",
      "outputs": [
        {
          "components": [
            {
              "internalType": "uint256",
              "name": "id",
              "type": "uint256"
            },
            {
              "internalType": "uint8",
              "name": "column",
              "type": "uint8"
            },
            {
              "internalType": "uint8",
              "name": "row",
              "type": "uint8"
            },
            {
              "internalType": "uint256",
              "name": "price",
              "type": "uint256"
            },
            {
              "internalType": "enum AerolineasFlights.SeatStatus",
              "name": "status",
              "type": "uint8"
            }
          ],
          "internalType": "struct AerolineasFlights.SeatWithId[]",
          "name": "",
          "type": "tuple[]"
        }
      ],
      "stateMutability": "view",
      "type": "function"
    },
    {
      "inputs": [
        {
          "internalType": "address",
          "name": "owner",
          "type": "address"
        },
        {
          "internalType": "address",
          "name": "operator",
          "type": "address"
        }
      ],
      "name": "isApprovedForAll",
      "outputs": [
        {
          "internalType": "bool",
          "name": "",
          "type": "bool"
        }
      ],
      "stateMutability": "view",
      "type": "function"
    },
    {
      "inputs": [],
      "name": "name",
      "outputs": [
        {
          "internalType": "string",
          "name": "",
          "type": "string"
        }
      ],
      "stateMutability": "view",
      "type": "function"
    },
    {
      "inputs": [],
      "name": "owner",
      "outputs": [
        {
          "internalType": "address",
          "name": "",
          "type": "address"
        }
      ],
      "stateMutability": "view",
      "type": "function"
    },
    {
      "inputs": [
        {
          "internalType": "uint256",
          "name": "tokenId",
          "type": "uint256"
        }
      ],
      "name": "ownerOf",
      "outputs": [
        {
          "internalType": "address",
          "name": "",
          "type": "address"
        }
      ],
      "stateMutability": "view",
      "type": "function"
    },
    {
      "inputs": [
        {
          "internalType": "uint256",
          "name": "_reservationId",
          "type": "uint256"
        },
        {
          "internalType": "uint256",
          "name": "_resalePrice",
          "type": "uint256"
        }
      ],
      "name": "resaleReservation",
      "outputs": [],
      "stateMutability": "nonpayable",
      "type": "function"
    },
    {
      "inputs": [
        {
          "internalType": "uint256",
          "name": "_flightId",
          "type": "uint256"
        },
        {
          "internalType": "uint256",
          "name": "_seatId",
          "type": "uint256"
        }
      ],
      "name": "reserveFlight",
      "outputs": [],
      "stateMutability": "payable",
      "type": "function"
    },
    {
      "inputs": [
        {
          "internalType": "address",
          "name": "from",
          "type": "address"
        },
        {
          "internalType": "address",
          "name": "to",
          "type": "address"
        },
        {
          "internalType": "uint256",
          "name": "tokenId",
          "type": "uint256"
        }
      ],
      "name": "safeTransferFrom",
      "outputs": [],
      "stateMutability": "nonpayable",
      "type": "function"
    },
    {
      "inputs": [
        {
          "internalType": "address",
          "name": "from",
          "type": "address"
        },
        {
          "internalType": "address",
          "name": "to",
          "type": "address"
        },
        {
          "internalType": "uint256",
          "name": "tokenId",
          "type": "uint256"
        },
        {
          "internalType": "bytes",
          "name": "data",
          "type": "bytes"
        }
      ],
      "name": "safeTransferFrom",
      "outputs": [],
      "stateMutability": "nonpayable",
      "type": "function"
    },
    {
      "inputs": [
        {
          "internalType": "address",
          "name": "operator",
          "type": "address"
        },
        {
          "internalType": "bool",
          "name": "approved",
          "type": "bool"
        }
      ],
      "name": "setApprovalForAll",
      "outputs": [],
      "stateMutability": "nonpayable",
      "type": "function"
    },
    {
      "inputs": [
        {
          "internalType": "bytes4",
          "name": "interfaceId",
          "type": "bytes4"
        }
      ],
      "name": "supportsInterface",
      "outputs": [
        {
          "internalType": "bool",
          "name": "",
          "type": "bool"
        }
      ],
      "stateMutability": "view",
      "type": "function"
    },
    {
      "inputs": [],
      "name": "symbol",
      "outputs": [
        {
          "internalType": "string",
          "name": "",
          "type": "string"
        }
      ],
      "stateMutability": "view",
      "type": "function"
    },
    {
      "inputs": [
        {
          "internalType": "uint256",
          "name": "tokenId",
          "type": "uint256"
        }
      ],
      "name": "tokenURI",
      "outputs": [
        {
          "internalType": "string",
          "name": "",
          "type": "string"
        }
      ],
      "stateMutability": "view",
      "type": "function"
    },
    {
      "inputs": [
        {
          "internalType": "address",
          "name": "from",
          "type": "address"
        },
        {
          "internalType": "address",
          "name": "to",
          "type": "address"
        },
        {
          "internalType": "uint256",
          "name": "tokenId",
          "type": "uint256"
        }
      ],
      "name": "transferFrom",
      "outputs": [],
      "stateMutability": "nonpayable",
      "type": "function"
    },
    {
      "inputs": [
        {
          "internalType": "address",
          "name": "_newOwner",
          "type": "address"
        }
      ],
      "name": "transferOwnership",
      "outputs": [],
      "stateMutability": "nonpayable",
      "type": "function"
    },
    {
      "inputs": [
        {
          "internalType": "uint256",
          "name": "_reservationId",
          "type": "uint256"
        }
      ],
      "name": "undoResaleReservation",
      "outputs": [],
      "stateMutability": "nonpayable",
      "type": "function"
    },
    {
      "inputs": [
        {
          "internalType": "uint8",
          "name": "_feeCancellation",
          "type": "uint8"
        }
      ],
      "name": "updateFeeCancellation",
      "outputs": [],
      "stateMutability": "nonpayable",
      "type": "function"
    },
    {
      "inputs": [
        {
          "internalType": "uint8",
          "name": "_feeResale",
          "type": "uint8"
        }
      ],
      "name": "updateFeeResale",
      "outputs": [],
      "stateMutability": "nonpayable",
      "type": "function"
    },
    {
      "inputs": [],
      "name": "withdraw",
      "outputs": [],
      "stateMutability": "nonpayable",
      "type": "function"
    }
  ],
  "bytecode": "0x60806040523480156200001157600080fd5b50604051620066b8380380620066b88339818101604052810190620000379190620002ff565b838381600090816200004a9190620005fa565b5080600190816200005c9190620005fa565b50505033600660006101000a81548173ffffffffffffffffffffffffffffffffffffffff021916908373ffffffffffffffffffffffffffffffffffffffff16021790555060648160ff161180620000b6575060648260ff16115b15620000ee576040517f0bbac80400000000000000000000000000000000000000000000000000000000815260040160405180910390fd5b80600660146101000a81548160ff021916908360ff16021790555081600660156101000a81548160ff021916908360ff16021790555050505050620006e1565b6000604051905090565b600080fd5b600080fd5b600080fd5b600080fd5b6000601f19601f8301169050919050565b7f4e487b7100000000000000000000000000000000000000000000000000000000600052604160045260246000fd5b62000197826200014c565b810181811067ffffffffffffffff82111715620001b957620001b86200015d565b5b80604052505050565b6000620001ce6200012e565b9050620001dc82826200018c565b919050565b600067ffffffffffffffff821115620001ff57620001fe6200015d565b5b6200020a826200014c565b9050602081019050919050565b60005b83811015620002375780820151818401526020810190506200021a565b60008484015250505050565b60006200025a6200025484620001e1565b620001c2565b90508281526020810184848401111562000279576200027862000147565b5b6200028684828562000217565b509392505050565b600082601f830112620002a657620002a562000142565b5b8151620002b884826020860162000243565b91505092915050565b600060ff82169050919050565b620002d981620002c1565b8114620002e557600080fd5b50565b600081519050620002f981620002ce565b92915050565b600080600080608085870312156200031c576200031b62000138565b5b600085015167ffffffffffffffff8111156200033d576200033c6200013d565b5b6200034b878288016200028e565b945050602085015167ffffffffffffffff8111156200036f576200036e6200013d565b5b6200037d878288016200028e565b93505060406200039087828801620002e8565b9250506060620003a387828801620002e8565b91505092959194509250565b600081519050919050565b7f4e487b7100000000000000000000000000000000000000000000000000000000600052602260045260246000fd5b600060028204905060018216806200040257607f821691505b602082108103620004185762000417620003ba565b5b50919050565b60008190508160005260206000209050919050565b60006020601f8301049050919050565b600082821b905092915050565b600060088302620004827fffffffffffffffffffffffffffffffffffffffffffffffffffffffffffffffff8262000443565b6200048e868362000443565b95508019841693508086168417925050509392505050565b6000819050919050565b6000819050919050565b6000620004db620004d5620004cf84620004a6565b620004b0565b620004a6565b9050919050565b6000819050919050565b620004f783620004ba565b6200050f6200050682620004e2565b84845462000450565b825550505050565b600090565b6200052662000517565b62000533818484620004ec565b505050565b5b818110156200055b576200054f6000826200051c565b60018101905062000539565b5050565b601f821115620005aa5762000574816200041e565b6200057f8462000433565b810160208510156200058f578190505b620005a76200059e8562000433565b83018262000538565b50505b505050565b600082821c905092915050565b6000620005cf60001984600802620005af565b1980831691505092915050565b6000620005ea8383620005bc565b9150826002028217905092915050565b6200060582620003af565b67ffffffffffffffff8111156200062157620006206200015d565b5b6200062d8254620003e9565b6200063a8282856200055f565b600060209050601f8311600181146200067257600084156200065d578287015190505b620006698582620005dc565b865550620006d9565b601f19841662000682866200041e565b60005b82811015620006ac5784890151825560018201915060208501945060208101905062000685565b86831015620006cc5784890151620006c8601f891682620005bc565b8355505b6001600288020188555050505b505050505050565b615fc780620006f16000396000f3fe6080604052600436106101ed5760003560e01c806370a082311161010d578063ae5e6cf4116100a0578063c87b56dd1161006f578063c87b56dd146106f4578063db8d55f114610731578063e6bfcfd51461075d578063e985e9c51461079a578063f2fde38b146107d7576101ed565b8063ae5e6cf414610650578063b6920dd214610679578063b88d4fde146106a2578063bd0942c6146106cb576101ed565b8063946487fd116100dc578063946487fd146105b757806395d89b41146105d3578063a22cb465146105fe578063a8056f1914610627576101ed565b806370a08231146104e25780638801be6d1461051f5780638bc2e7d6146105485780638da5cb5b1461058c576101ed565b806323b872dd116101855780633ccfd60b116101545780633ccfd60b1461043a57806342842e0e146104515780635463d03c1461047a5780636352211e146104a5576101ed565b806323b872dd146103665780633a4396cb1461038f5780633b76312e146103d45780633bc97c0714610411576101ed565b8063095ea7b3116101c1578063095ea7b3146102c057806312a4aacd146102e95780631a9ffee7146103125780631da897d71461033d576101ed565b8062fa258e146101f257806301ffc9a71461021b57806306fdde0314610258578063081812fc14610283575b600080fd5b3480156101fe57600080fd5b506102196004803603810190610214919061482c565b610800565b005b34801561022757600080fd5b50610242600480360381019061023d91906148b1565b61098c565b60405161024f91906148f9565b60405180910390f35b34801561026457600080fd5b5061026d610a6e565b60405161027a91906149a4565b60405180910390f35b34801561028f57600080fd5b506102aa60048036038101906102a5919061482c565b610b00565b6040516102b79190614a07565b60405180910390f35b3480156102cc57600080fd5b506102e760048036038101906102e29190614a4e565b610b46565b005b3480156102f557600080fd5b50610310600480360381019061030b9190614a8e565b610c5d565b005b34801561031e57600080fd5b50610327610e86565b6040516103349190614b8c565b60405180910390f35b34801561034957600080fd5b50610364600480360381019061035f9190614bae565b610ede565b005b34801561037257600080fd5b5061038d60048036038101906103889190614bee565b611119565b005b34801561039b57600080fd5b506103b660048036038101906103b1919061482c565b611179565b6040516103cb99989796959493929190614d08565b60405180910390f35b3480156103e057600080fd5b506103fb60048036038101906103f6919061482c565b611248565b6040516104089190614f10565b60405180910390f35b34801561041d57600080fd5b5061043860048036038101906104339190614f5e565b611435565b005b34801561044657600080fd5b5061044f611518565b005b34801561045d57600080fd5b5061047860048036038101906104739190614bee565b611667565b005b34801561048657600080fd5b5061048f611687565b60405161049c9190614b8c565b60405180910390f35b3480156104b157600080fd5b506104cc60048036038101906104c7919061482c565b61171c565b6040516104d99190614a07565b60405180910390f35b3480156104ee57600080fd5b5061050960048036038101906105049190614f8b565b6117a2565b6040516105169190614fb8565b60405180910390f35b34801561052b57600080fd5b5061054660048036038101906105419190615215565b611859565b005b34801561055457600080fd5b5061056f600480360381019061056a919061482c565b611cc3565b6040516105839897969594939291906152dc565b60405180910390f35b34801561059857600080fd5b506105a1611e57565b6040516105ae9190614a07565b60405180910390f35b6105d160048036038101906105cc9190614bae565b611e7d565b005b3480156105df57600080fd5b506105e861269a565b6040516105f591906149a4565b60405180910390f35b34801561060a57600080fd5b5061062560048036038101906106209190615386565b61272c565b005b34801561063357600080fd5b5061064e6004803603810190610649919061482c565b612742565b005b34801561065c57600080fd5b506106776004803603810190610672919061482c565b612951565b005b34801561068557600080fd5b506106a0600480360381019061069b9190614f5e565b612f10565b005b3480156106ae57600080fd5b506106c960048036038101906106c4919061547b565b612ff3565b005b3480156106d757600080fd5b506106f260048036038101906106ed919061482c565b613055565b005b34801561070057600080fd5b5061071b6004803603810190610716919061482c565b6131fe565b60405161072891906149a4565b60405180910390f35b34801561073d57600080fd5b50610746613266565b6040516107549291906154fe565b60405180910390f35b34801561076957600080fd5b50610784600480360381019061077f919061482c565b613291565b6040516107919190614fb8565b60405180910390f35b3480156107a657600080fd5b506107c160048036038101906107bc9190615527565b6132b5565b6040516107ce91906148f9565b60405180910390f35b3480156107e357600080fd5b506107fe60048036038101906107f99190614f8b565b613349565b005b600660009054906101000a900473ffffffffffffffffffffffffffffffffffffffff1673ffffffffffffffffffffffffffffffffffffffff163373ffffffffffffffffffffffffffffffffffffffff1614610887576040517f30cd747100000000000000000000000000000000000000000000000000000000815260040160405180910390fd5b6000600181111561089b5761089a614c91565b5b600a600083815260200190815260200160002060000160199054906101000a900460ff1660018111156108d1576108d0614c91565b5b03610908576040517f51eee50a00000000000000000000000000000000000000000000000000000000815260040160405180910390fd5b6000600a600083815260200190815260200160002060000160196101000a81548160ff0219169083600181111561094257610941614c91565b5b021790555061095260098261347a565b7f459b0e36d84045fd879e214bd3271b2337df52e3cf3dec3f07b06a66387a6084816040516109819190614fb8565b60405180910390a150565b60007f80ac58cd000000000000000000000000000000000000000000000000000000007bffffffffffffffffffffffffffffffffffffffffffffffffffffffff1916827bffffffffffffffffffffffffffffffffffffffffffffffffffffffff19161480610a5757507f5b5e139f000000000000000000000000000000000000000000000000000000007bffffffffffffffffffffffffffffffffffffffffffffffffffffffff1916827bffffffffffffffffffffffffffffffffffffffffffffffffffffffff1916145b80610a675750610a6682613540565b5b9050919050565b606060008054610a7d90615596565b80601f0160208091040260200160405190810160405280929190818152602001828054610aa990615596565b8015610af65780601f10610acb57610100808354040283529160200191610af6565b820191906000526020600020905b815481529060010190602001808311610ad957829003601f168201915b5050505050905090565b6000610b0b826135aa565b6004600083815260200190815260200160002060009054906101000a900473ffffffffffffffffffffffffffffffffffffffff169050919050565b6000610b518261171c565b90508073ffffffffffffffffffffffffffffffffffffffff168373ffffffffffffffffffffffffffffffffffffffff1603610bc1576040517f08c379a0000000000000000000000000000000000000000000000000000000008152600401610bb890615639565b60405180910390fd5b8073ffffffffffffffffffffffffffffffffffffffff16610be06135f5565b73ffffffffffffffffffffffffffffffffffffffff161480610c0f5750610c0e81610c096135f5565b6132b5565b5b610c4e576040517f08c379a0000000000000000000000000000000000000000000000000000000008152600401610c45906156cb565b60405180910390fd5b610c5883836135fd565b505050565b6000600a6000600c60008681526020019081526020016000206000015481526020019081526020016000209050600180811115610c9d57610c9c614c91565b5b8160000160199054906101000a900460ff166001811115610cc157610cc0614c91565b5b14610cf8576040517fcb18af4e00000000000000000000000000000000000000000000000000000000815260040160405180910390fd5b600180811115610d0b57610d0a614c91565b5b600f6000600c600087815260200190815260200160002060000154815260200190815260200160002060008473ffffffffffffffffffffffffffffffffffffffff1673ffffffffffffffffffffffffffffffffffffffff16815260200190815260200160002060009054906101000a900460ff166001811115610d9157610d90614c91565b5b03610dc8576040517fbcde6ea100000000000000000000000000000000000000000000000000000000815260040160405180910390fd5b610e10600d60003373ffffffffffffffffffffffffffffffffffffffff1673ffffffffffffffffffffffffffffffffffffffff1681526020019081526020016000208461347a565b600d60008373ffffffffffffffffffffffffffffffffffffffff1673ffffffffffffffffffffffffffffffffffffffff168152602001908152602001600020839080600181540180825580915050600190039060005260206000200160009091909190915055610e818333846136b6565b505050565b60606009805480602002602001604051908101604052809291908181526020018280548015610ed457602002820191906000526020600020905b815481526020019060010190808311610ec0575b5050505050905090565b3373ffffffffffffffffffffffffffffffffffffffff16610efe8361171c565b73ffffffffffffffffffffffffffffffffffffffff1614610f4b576040517fd5dbc92400000000000000000000000000000000000000000000000000000000815260040160405180910390fd5b6001811015610f86576040517f08081d0d00000000000000000000000000000000000000000000000000000000815260040160405180910390fd5b6000600c600084815260200190815260200160002090506000600a6000836000015481526020019081526020016000209050600180811115610fcb57610fca614c91565b5b8160000160199054906101000a900460ff166001811115610fef57610fee614c91565b5b14611026576040517fcb18af4e00000000000000000000000000000000000000000000000000000000815260040160405180910390fd5b82600e6000846001015481526020019081526020016000206001018190555083600e600084600101548152602001908152602001600020600001819055508060010160008154809291906110799061571a565b91905055506001600a60008460000154815260200190815260200160002060040160008460010154815260200190815260200160002060020160006101000a81548160ff021916908360038111156110d4576110d3614c91565b5b0217905550837f52db7288bfcc5c190f96ffd5198943858358734d06017d5ffb8c12a18d09e062843360405161110b929190615762565b60405180910390a250505050565b61112a6111246135f5565b82613962565b611169576040517f08c379a0000000000000000000000000000000000000000000000000000000008152600401611160906157fd565b60405180910390fd5b6111748383836139f7565b505050565b600080600080600080600080600080600a60008c815260200190815260200160002090508a8160000160169054906101000a900462ffffff168260000160009054906101000a900462ffffff168360000160039054906101000a900462ffffff168460000160069054906101000a900467ffffffffffffffff1685600001600e9054906101000a900467ffffffffffffffff168660000160199054906101000a900460ff1687600101548860020154995099509950995099509950995099509950509193959799909294969850565b60606000600a6000848152602001908152602001600020905060008160020154905060008167ffffffffffffffff81111561128657611285615030565b5b6040519080825280602002602001820160405280156112bf57816020015b6112ac61479b565b8152602001906001900390816112a45790505b50905060005b828110156114295760008460030182815481106112e5576112e461581d565b5b9060005260206000200154905060008560040160008381526020019081526020016000206001015490506000600e600084815260200190815260200160002060010154111561134857600e60008381526020019081526020016000206001015490505b6040518060a0016040528083815260200187600401600085815260200190815260200160002060000160009054906101000a900460ff1660ff16815260200187600401600085815260200190815260200160002060000160019054906101000a900460ff1660ff16815260200182815260200187600401600085815260200190815260200160002060020160009054906101000a900460ff1660038111156113f3576113f2614c91565b5b8152508484815181106114095761140861581d565b5b6020026020010181905250505080806114219061571a565b9150506112c5565b50809350505050919050565b600660009054906101000a900473ffffffffffffffffffffffffffffffffffffffff1673ffffffffffffffffffffffffffffffffffffffff163373ffffffffffffffffffffffffffffffffffffffff16146114bc576040517f30cd747100000000000000000000000000000000000000000000000000000000815260040160405180910390fd5b60648160ff1611156114fa576040517f0bbac80400000000000000000000000000000000000000000000000000000000815260040160405180910390fd5b80600660146101000a81548160ff021916908360ff16021790555050565b600660009054906101000a900473ffffffffffffffffffffffffffffffffffffffff1673ffffffffffffffffffffffffffffffffffffffff163373ffffffffffffffffffffffffffffffffffffffff161461159f576040517f30cd747100000000000000000000000000000000000000000000000000000000815260040160405180910390fd5b6000600660009054906101000a900473ffffffffffffffffffffffffffffffffffffffff1673ffffffffffffffffffffffffffffffffffffffff16476040516115e79061587d565b60006040518083038185875af1925050503d8060008114611624576040519150601f19603f3d011682016040523d82523d6000602084013e611629565b606091505b5050905080611664576040517f90b8ec1800000000000000000000000000000000000000000000000000000000815260040160405180910390fd5b50565b61168283838360405180602001604052806000815250612ff3565b505050565b6060600d60003373ffffffffffffffffffffffffffffffffffffffff1673ffffffffffffffffffffffffffffffffffffffff16815260200190815260200160002080548060200260200160405190810160405280929190818152602001828054801561171257602002820191906000526020600020905b8154815260200190600101908083116116fe575b5050505050905090565b60008061172883613cf0565b9050600073ffffffffffffffffffffffffffffffffffffffff168173ffffffffffffffffffffffffffffffffffffffff1603611799576040517f08c379a0000000000000000000000000000000000000000000000000000000008152600401611790906158de565b60405180910390fd5b80915050919050565b60008073ffffffffffffffffffffffffffffffffffffffff168273ffffffffffffffffffffffffffffffffffffffff1603611812576040517f08c379a000000000000000000000000000000000000000000000000000000000815260040161180990615970565b60405180910390fd5b600360008373ffffffffffffffffffffffffffffffffffffffff1673ffffffffffffffffffffffffffffffffffffffff168152602001908152602001600020549050919050565b600660009054906101000a900473ffffffffffffffffffffffffffffffffffffffff1673ffffffffffffffffffffffffffffffffffffffff163373ffffffffffffffffffffffffffffffffffffffff16146118e0576040517f30cd747100000000000000000000000000000000000000000000000000000000815260040160405180910390fd5b600081510361191b576040517fc0727f4200000000000000000000000000000000000000000000000000000000815260040160405180910390fd5b6007600081548092919061192e9061571a565b91905055506000600a600060075481526020019081526020016000209050868160000160166101000a81548162ffffff021916908362ffffff160217905550858160000160006101000a81548162ffffff021916908362ffffff160217905550848160000160036101000a81548162ffffff021916908362ffffff160217905550838160000160066101000a81548167ffffffffffffffff021916908367ffffffffffffffff1602179055508281600001600e6101000a81548167ffffffffffffffff021916908367ffffffffffffffff16021790555060018160000160196101000a81548160ff02191690836001811115611a2d57611a2c614c91565b5b0217905550815181600101819055508151816002018190555060005b8251811015611c49576000838281518110611a6757611a6661581d565b5b60200260200101516040015103611aaa576040517f08081d0d00000000000000000000000000000000000000000000000000000000815260040160405180910390fd5b60086000815480929190611abd9061571a565b91905055506040518060800160405280848381518110611ae057611adf61581d565b5b60200260200101516000015160ff168152602001848381518110611b0757611b0661581d565b5b60200260200101516020015160ff168152602001848381518110611b2e57611b2d61581d565b5b6020026020010151604001518152602001848381518110611b5257611b5161581d565b5b6020026020010151606001516003811115611b7057611b6f614c91565b5b815250826004016000600854815260200190815260200160002060008201518160000160006101000a81548160ff021916908360ff16021790555060208201518160000160016101000a81548160ff021916908360ff1602179055506040820151816001015560608201518160020160006101000a81548160ff02191690836003811115611c0157611c00614c91565b5b02179055509050508160030160085490806001815401808255809150506001900390600052602060002001600090919091909150558080611c419061571a565b915050611a49565b50600960075490806001815401808255809150506001900390600052602060002001600090919091909150556007547f18a46a46f23ad2d0a4ac173252fc4d26723c9883745eb75ce6b28d439045540488888888888851604051611cb296959493929190615990565b60405180910390a250505050505050565b6000806000806000806000806000600c60008b815260200190815260200160002090508060020160009054906101000a900473ffffffffffffffffffffffffffffffffffffffff1673ffffffffffffffffffffffffffffffffffffffff163373ffffffffffffffffffffffffffffffffffffffff1614611d6f576040517f967d279500000000000000000000000000000000000000000000000000000000815260040160405180910390fd5b6000600a600083600001548152602001908152602001600020905060008160040160008460010154815260200190815260200160002090506000816001015490506000600e600086600101548152602001908152602001600020600101541115611df157600e6000856001015481526020019081526020016000206001015490505b8c84600001548360000160009054906101000a900460ff168660010154848660000160019054906101000a900460ff168760020160009054906101000a900460ff168a600301549b509b509b509b509b509b509b509b5050505050919395975091939597565b600660009054906101000a900473ffffffffffffffffffffffffffffffffffffffff1681565b6000600a60008481526020019081526020016000209050600180811115611ea757611ea6614c91565b5b8160000160199054906101000a900460ff166001811115611ecb57611eca614c91565b5b14611f02576040517fcb18af4e00000000000000000000000000000000000000000000000000000000815260040160405180910390fd5b600181600101541015611f41576040517fbc2287e900000000000000000000000000000000000000000000000000000000815260040160405180910390fd5b600180811115611f5457611f53614c91565b5b600f600085815260200190815260200160002060003373ffffffffffffffffffffffffffffffffffffffff1673ffffffffffffffffffffffffffffffffffffffff16815260200190815260200160002060009054906101000a900460ff166001811115611fc457611fc3614c91565b5b03611ffb576040517fbcde6ea100000000000000000000000000000000000000000000000000000000815260040160405180910390fd5b6002600381111561200f5761200e614c91565b5b81600401600084815260200190815260200160002060020160009054906101000a900460ff16600381111561204757612046614c91565b5b148061209b575060038081111561206157612060614c91565b5b81600401600084815260200190815260200160002060020160009054906101000a900460ff16600381111561209957612098614c91565b5b145b156120d2576040517f46dbe62c00000000000000000000000000000000000000000000000000000000815260040160405180910390fd5b8060010160008154809291906120e7906159f1565b919050555060006003811115612100576120ff614c91565b5b81600401600084815260200190815260200160002060020160009054906101000a900460ff16600381111561213857612137614c91565b5b036123875780600401600083815260200190815260200160002060010154341461218e576040517f6992e1ff00000000000000000000000000000000000000000000000000000000815260040160405180910390fd5b612198600b613d2d565b60006121a4600b613d43565b90506000600c60008381526020019081526020016000209050848160000181905550838160010181905550338160020160006101000a81548173ffffffffffffffffffffffffffffffffffffffff021916908373ffffffffffffffffffffffffffffffffffffffff160217905550428160030181905550600283600401600086815260200190815260200160002060020160006101000a81548160ff0219169083600381111561225757612256614c91565b5b02179055506001600f600087815260200190815260200160002060003373ffffffffffffffffffffffffffffffffffffffff1673ffffffffffffffffffffffffffffffffffffffff16815260200190815260200160002060006101000a81548160ff021916908360018111156122d0576122cf614c91565b5b0217905550600d60003373ffffffffffffffffffffffffffffffffffffffff1673ffffffffffffffffffffffffffffffffffffffff1681526020019081526020016000208290806001815401808255809150506001900390600052602060002001600090919091909150556123453383613d51565b84827f3130135cd42e7dba01f6593aaf1692dbf76a2df8fcc779e99118304f3a3e3af58633604051612378929190615762565b60405180910390a35050612695565b6001600381111561239b5761239a614c91565b5b81600401600084815260200190815260200160002060020160009054906101000a900460ff1660038111156123d3576123d2614c91565b5b03612694576000600e600084815260200190815260200160002090508060010154341461242c576040517f6992e1ff00000000000000000000000000000000000000000000000000000000815260040160405180910390fd5b6000600c60008360000154815260200190815260200160002060020160009054906101000a900473ffffffffffffffffffffffffffffffffffffffff16905061247a826000015482336136b6565b600383600401600086815260200190815260200160002060020160006101000a81548160ff021916908360038111156124b6576124b5614c91565b5b0217905550816001015483600401600086815260200190815260200160002060010181905550612528600d60008373ffffffffffffffffffffffffffffffffffffffff1673ffffffffffffffffffffffffffffffffffffffff168152602001908152602001600020836000015461347a565b600d60003373ffffffffffffffffffffffffffffffffffffffff1673ffffffffffffffffffffffffffffffffffffffff1681526020019081526020016000208260000154908060018154018082558091505060019003906000526020600020016000909190919091505560008173ffffffffffffffffffffffffffffffffffffffff166125c88460010154600660149054906101000a900460ff16613d6f565b6040516125d49061587d565b60006040518083038185875af1925050503d8060008114612611576040519150601f19603f3d011682016040523d82523d6000602084013e612616565b606091505b5050905080612651576040517ff0c49d4400000000000000000000000000000000000000000000000000000000815260040160405180910390fd5b8583600001547f3130135cd42e7dba01f6593aaf1692dbf76a2df8fcc779e99118304f3a3e3af58733604051612688929190615762565b60405180910390a35050505b5b505050565b6060600180546126a990615596565b80601f01602080910402602001604051908101604052809291908181526020018280546126d590615596565b80156127225780601f106126f757610100808354040283529160200191612722565b820191906000526020600020905b81548152906001019060200180831161270557829003601f168201915b5050505050905090565b61273e6127376135f5565b8383613dde565b5050565b3373ffffffffffffffffffffffffffffffffffffffff166127628261171c565b73ffffffffffffffffffffffffffffffffffffffff16146127af576040517fd5dbc92400000000000000000000000000000000000000000000000000000000815260040160405180910390fd5b6000600a6000600c600085815260200190815260200160002060000154815260200190815260200160002090506001808111156127ef576127ee614c91565b5b8160000160199054906101000a900460ff16600181111561281357612812614c91565b5b1461284a576040517fcb18af4e00000000000000000000000000000000000000000000000000000000815260040160405180910390fd5b80600101600081548092919061285f906159f1565b91905055506003600a6000600c60008681526020019081526020016000206000015481526020019081526020016000206004016000600c600086815260200190815260200160002060010154815260200190815260200160002060020160006101000a81548160ff021916908360038111156128de576128dd614c91565b5b02179055506000600e6000600c600086815260200190815260200160002060010154815260200190815260200160002060010181905550817f51e2ee8eb1ced309dee2bde98c7bba8bd45733fe6aa2eabaf0ef3bcb6dbe76d6336040516129459190614a07565b60405180910390a25050565b3373ffffffffffffffffffffffffffffffffffffffff166129718261171c565b73ffffffffffffffffffffffffffffffffffffffff16146129be576040517fd5dbc92400000000000000000000000000000000000000000000000000000000815260040160405180910390fd5b6000600c600083815260200190815260200160002060405180608001604052908160008201548152602001600182015481526020016002820160009054906101000a900473ffffffffffffffffffffffffffffffffffffffff1673ffffffffffffffffffffffffffffffffffffffff1673ffffffffffffffffffffffffffffffffffffffff16815260200160038201548152505090506000600a6000836000015181526020019081526020016000209050600180811115612a8257612a81614c91565b5b8160000160199054906101000a900460ff166001811115612aa657612aa5614c91565b5b14612add576040517fcb18af4e00000000000000000000000000000000000000000000000000000000815260040160405180910390fd5b60016003811115612af157612af0614c91565b5b8160040160008460200151815260200190815260200160002060020160009054906101000a900460ff166003811115612b2d57612b2c614c91565b5b1480612b855750600380811115612b4757612b46614c91565b5b8160040160008460200151815260200190815260200160002060020160009054906101000a900460ff166003811115612b8357612b82614c91565b5b145b15612bbc576040517f477dc77e00000000000000000000000000000000000000000000000000000000815260040160405180910390fd5b60006003811115612bd057612bcf614c91565b5b8160040160008460200151815260200190815260200160002060020160009054906101000a900460ff166003811115612c0c57612c0b614c91565b5b03612c43576040517f0d027e4d00000000000000000000000000000000000000000000000000000000815260040160405180910390fd5b6000600a600084600001518152602001908152602001600020600401600084602001518152602001908152602001600020600101549050816001016000815480929190612c8f9061571a565b91905055506000600a60008560000151815260200190815260200160002060040160008560200151815260200190815260200160002060020160006101000a81548160ff02191690836003811115612cea57612ce9614c91565b5b02179055506000600f6000856000015181526020019081526020016000206000856040015173ffffffffffffffffffffffffffffffffffffffff1673ffffffffffffffffffffffffffffffffffffffff16815260200190815260200160002060006101000a81548160ff02191690836001811115612d6b57612d6a614c91565b5b0217905550612db8600d60003373ffffffffffffffffffffffffffffffffffffffff1673ffffffffffffffffffffffffffffffffffffffff1681526020019081526020016000208561347a565b600c600085815260200190815260200160002060008082016000905560018201600090556002820160006101000a81549073ffffffffffffffffffffffffffffffffffffffff021916905560038201600090555050612e1684613f4a565b60003373ffffffffffffffffffffffffffffffffffffffff16612e4883600660159054906101000a900460ff16613d6f565b604051612e549061587d565b60006040518083038185875af1925050503d8060008114612e91576040519150601f19603f3d011682016040523d82523d6000602084013e612e96565b606091505b5050905080612ed1576040517ff0c49d4400000000000000000000000000000000000000000000000000000000815260040160405180910390fd5b847f3c2fc5426e520a94b6ab7a5f7656efcd7914863952069002f5f82a222db991d833604051612f019190614a07565b60405180910390a25050505050565b600660009054906101000a900473ffffffffffffffffffffffffffffffffffffffff1673ffffffffffffffffffffffffffffffffffffffff163373ffffffffffffffffffffffffffffffffffffffff1614612f97576040517f30cd747100000000000000000000000000000000000000000000000000000000815260040160405180910390fd5b60648160ff161115612fd5576040517f0bbac80400000000000000000000000000000000000000000000000000000000815260040160405180910390fd5b80600660156101000a81548160ff021916908360ff16021790555050565b613004612ffe6135f5565b83613962565b613043576040517f08c379a000000000000000000000000000000000000000000000000000000000815260040161303a906157fd565b60405180910390fd5b61304f84848484614098565b50505050565b600660009054906101000a900473ffffffffffffffffffffffffffffffffffffffff1673ffffffffffffffffffffffffffffffffffffffff163373ffffffffffffffffffffffffffffffffffffffff16146130dc576040517f30cd747100000000000000000000000000000000000000000000000000000000815260040160405180910390fd5b6001808111156130ef576130ee614c91565b5b600a600083815260200190815260200160002060000160199054906101000a900460ff16600181111561312557613124614c91565b5b0361315c576040517f4330ffd700000000000000000000000000000000000000000000000000000000815260040160405180910390fd5b6001600a600083815260200190815260200160002060000160196101000a81548160ff0219169083600181111561319657613195614c91565b5b021790555060098190806001815401808255809150506001900390600052602060002001600090919091909150557f54563f476dd5ad0979b77721b6254b7ca5d325d71c9caeedc99dcf3fed9061b0816040516131f39190614fb8565b60405180910390a150565b6060613209826135aa565b60006132136140f4565b90506000815111613233576040518060200160405280600081525061325e565b8061323d8461410b565b60405160200161324e929190615a56565b6040516020818303038152906040525b915050919050565b600080600660159054906101000a900460ff16600660149054906101000a900460ff16915091509091565b600981815481106132a157600080fd5b906000526020600020016000915090505481565b6000600560008473ffffffffffffffffffffffffffffffffffffffff1673ffffffffffffffffffffffffffffffffffffffff16815260200190815260200160002060008373ffffffffffffffffffffffffffffffffffffffff1673ffffffffffffffffffffffffffffffffffffffff16815260200190815260200160002060009054906101000a900460ff16905092915050565b600660009054906101000a900473ffffffffffffffffffffffffffffffffffffffff1673ffffffffffffffffffffffffffffffffffffffff163373ffffffffffffffffffffffffffffffffffffffff16146133d0576040517f30cd747100000000000000000000000000000000000000000000000000000000815260040160405180910390fd5b600073ffffffffffffffffffffffffffffffffffffffff168173ffffffffffffffffffffffffffffffffffffffff1603613436576040517fb5b383ad00000000000000000000000000000000000000000000000000000000815260040160405180910390fd5b80600660006101000a81548173ffffffffffffffffffffffffffffffffffffffff021916908373ffffffffffffffffffffffffffffffffffffffff16021790555050565b60005b828054905081101561353b578183828154811061349d5761349c61581d565b5b9060005260206000200154036135285782600184805490506134bf9190615a7a565b815481106134d0576134cf61581d565b5b90600052602060002001548382815481106134ee576134ed61581d565b5b90600052602060002001819055508280548061350d5761350c615aae565b5b6001900381819060005260206000200160009055905561353b565b80806135339061571a565b91505061347d565b505050565b60007f01ffc9a7000000000000000000000000000000000000000000000000000000007bffffffffffffffffffffffffffffffffffffffffffffffffffffffff1916827bffffffffffffffffffffffffffffffffffffffffffffffffffffffff1916149050919050565b6135b3816141d9565b6135f2576040517f08c379a00000000000000000000000000000000000000000000000000000000081526004016135e9906158de565b60405180910390fd5b50565b600033905090565b816004600083815260200190815260200160002060006101000a81548173ffffffffffffffffffffffffffffffffffffffff021916908373ffffffffffffffffffffffffffffffffffffffff160217905550808273ffffffffffffffffffffffffffffffffffffffff166136708361171c565b73ffffffffffffffffffffffffffffffffffffffff167f8c5be1e5ebec7d5bd14f71427d1e84f3dd0314c0f7b2291e5b200ac8c7c3b92560405160405180910390a45050565b8173ffffffffffffffffffffffffffffffffffffffff166136d68461171c565b73ffffffffffffffffffffffffffffffffffffffff1614613723576040517fd5dbc92400000000000000000000000000000000000000000000000000000000815260040160405180910390fd5b600073ffffffffffffffffffffffffffffffffffffffff168173ffffffffffffffffffffffffffffffffffffffff1603613789576040517fb5b383ad00000000000000000000000000000000000000000000000000000000815260040160405180910390fd5b6000600c60008581526020019081526020016000209050818160020160006101000a81548173ffffffffffffffffffffffffffffffffffffffff021916908373ffffffffffffffffffffffffffffffffffffffff1602179055504281600301819055506000600f60008360000154815260200190815260200160002060008573ffffffffffffffffffffffffffffffffffffffff1673ffffffffffffffffffffffffffffffffffffffff16815260200190815260200160002060006101000a81548160ff0219169083600181111561386457613863614c91565b5b02179055506001600f60008360000154815260200190815260200160002060008473ffffffffffffffffffffffffffffffffffffffff1673ffffffffffffffffffffffffffffffffffffffff16815260200190815260200160002060006101000a81548160ff021916908360018111156138e1576138e0614c91565b5b021790555061390183838660405180602001604052806000815250614098565b8173ffffffffffffffffffffffffffffffffffffffff168373ffffffffffffffffffffffffffffffffffffffff16857f6778fbe6fb827f5c3c7e00ae4fb48f225b4adb569692355e16e9209c131f659c60405160405180910390a450505050565b60008061396e8361171c565b90508073ffffffffffffffffffffffffffffffffffffffff168473ffffffffffffffffffffffffffffffffffffffff1614806139b057506139af81856132b5565b5b806139ee57508373ffffffffffffffffffffffffffffffffffffffff166139d684610b00565b73ffffffffffffffffffffffffffffffffffffffff16145b91505092915050565b8273ffffffffffffffffffffffffffffffffffffffff16613a178261171c565b73ffffffffffffffffffffffffffffffffffffffff1614613a6d576040517f08c379a0000000000000000000000000000000000000000000000000000000008152600401613a6490615b4f565b60405180910390fd5b600073ffffffffffffffffffffffffffffffffffffffff168273ffffffffffffffffffffffffffffffffffffffff1603613adc576040517f08c379a0000000000000000000000000000000000000000000000000000000008152600401613ad390615be1565b60405180910390fd5b613ae9838383600161421a565b8273ffffffffffffffffffffffffffffffffffffffff16613b098261171c565b73ffffffffffffffffffffffffffffffffffffffff1614613b5f576040517f08c379a0000000000000000000000000000000000000000000000000000000008152600401613b5690615b4f565b60405180910390fd5b6004600082815260200190815260200160002060006101000a81549073ffffffffffffffffffffffffffffffffffffffff02191690556001600360008573ffffffffffffffffffffffffffffffffffffffff1673ffffffffffffffffffffffffffffffffffffffff168152602001908152602001600020600082825403925050819055506001600360008473ffffffffffffffffffffffffffffffffffffffff1673ffffffffffffffffffffffffffffffffffffffff16815260200190815260200160002060008282540192505081905550816002600083815260200190815260200160002060006101000a81548173ffffffffffffffffffffffffffffffffffffffff021916908373ffffffffffffffffffffffffffffffffffffffff160217905550808273ffffffffffffffffffffffffffffffffffffffff168473ffffffffffffffffffffffffffffffffffffffff167fddf252ad1be2c89b69c2b068fc378daa952ba7f163c4a11628f55a4df523b3ef60405160405180910390a4613ceb8383836001614220565b505050565b60006002600083815260200190815260200160002060009054906101000a900473ffffffffffffffffffffffffffffffffffffffff169050919050565b6001816000016000828254019250508190555050565b600081600001549050919050565b613d6b828260405180602001604052806000815250614226565b5050565b600060648260ff161115613daf576040517f0bbac80400000000000000000000000000000000000000000000000000000000815260040160405180910390fd5b6064826064613dbe9190615c01565b60ff1684613dcc9190615c36565b613dd69190615ca7565b905092915050565b8173ffffffffffffffffffffffffffffffffffffffff168373ffffffffffffffffffffffffffffffffffffffff1603613e4c576040517f08c379a0000000000000000000000000000000000000000000000000000000008152600401613e4390615d24565b60405180910390fd5b80600560008573ffffffffffffffffffffffffffffffffffffffff1673ffffffffffffffffffffffffffffffffffffffff16815260200190815260200160002060008473ffffffffffffffffffffffffffffffffffffffff1673ffffffffffffffffffffffffffffffffffffffff16815260200190815260200160002060006101000a81548160ff0219169083151502179055508173ffffffffffffffffffffffffffffffffffffffff168373ffffffffffffffffffffffffffffffffffffffff167f17307eab39ab6107e8899845ad3d59bd9653f200f220920489ca2b5937696c3183604051613f3d91906148f9565b60405180910390a3505050565b6000613f558261171c565b9050613f6581600084600161421a565b613f6e8261171c565b90506004600083815260200190815260200160002060006101000a81549073ffffffffffffffffffffffffffffffffffffffff02191690556001600360008373ffffffffffffffffffffffffffffffffffffffff1673ffffffffffffffffffffffffffffffffffffffff168152602001908152602001600020600082825403925050819055506002600083815260200190815260200160002060006101000a81549073ffffffffffffffffffffffffffffffffffffffff021916905581600073ffffffffffffffffffffffffffffffffffffffff168273ffffffffffffffffffffffffffffffffffffffff167fddf252ad1be2c89b69c2b068fc378daa952ba7f163c4a11628f55a4df523b3ef60405160405180910390a4614094816000846001614220565b5050565b6140a38484846139f7565b6140af84848484614281565b6140ee576040517f08c379a00000000000000000000000000000000000000000000000000000000081526004016140e590615db6565b60405180910390fd5b50505050565b606060405180602001604052806000815250905090565b60606000600161411a84614408565b01905060008167ffffffffffffffff81111561413957614138615030565b5b6040519080825280601f01601f19166020018201604052801561416b5781602001600182028036833780820191505090505b509050600082602001820190505b6001156141ce578080600190039150507f3031323334353637383961626364656600000000000000000000000000000000600a86061a8153600a85816141c2576141c1615c78565b5b04945060008503614179575b819350505050919050565b60008073ffffffffffffffffffffffffffffffffffffffff166141fb83613cf0565b73ffffffffffffffffffffffffffffffffffffffff1614159050919050565b50505050565b50505050565b614230838361455b565b61423d6000848484614281565b61427c576040517f08c379a000000000000000000000000000000000000000000000000000000000815260040161427390615db6565b60405180910390fd5b505050565b60006142a28473ffffffffffffffffffffffffffffffffffffffff16614778565b156143fb578373ffffffffffffffffffffffffffffffffffffffff1663150b7a026142cb6135f5565b8786866040518563ffffffff1660e01b81526004016142ed9493929190615e2b565b6020604051808303816000875af192505050801561432957506040513d601f19601f820116820180604052508101906143269190615e8c565b60015b6143ab573d8060008114614359576040519150601f19603f3d011682016040523d82523d6000602084013e61435e565b606091505b5060008151036143a3576040517f08c379a000000000000000000000000000000000000000000000000000000000815260040161439a90615db6565b60405180910390fd5b805181602001fd5b63150b7a0260e01b7bffffffffffffffffffffffffffffffffffffffffffffffffffffffff1916817bffffffffffffffffffffffffffffffffffffffffffffffffffffffff191614915050614400565b600190505b949350505050565b600080600090507a184f03e93ff9f4daa797ed6e38ed64bf6a1f0100000000000000008310614466577a184f03e93ff9f4daa797ed6e38ed64bf6a1f010000000000000000838161445c5761445b615c78565b5b0492506040810190505b6d04ee2d6d415b85acef810000000083106144a3576d04ee2d6d415b85acef8100000000838161449957614498615c78565b5b0492506020810190505b662386f26fc1000083106144d257662386f26fc1000083816144c8576144c7615c78565b5b0492506010810190505b6305f5e10083106144fb576305f5e10083816144f1576144f0615c78565b5b0492506008810190505b612710831061452057612710838161451657614515615c78565b5b0492506004810190505b60648310614543576064838161453957614538615c78565b5b0492506002810190505b600a8310614552576001810190505b80915050919050565b600073ffffffffffffffffffffffffffffffffffffffff168273ffffffffffffffffffffffffffffffffffffffff16036145ca576040517f08c379a00000000000000000000000000000000000000000000000000000000081526004016145c190615f05565b60405180910390fd5b6145d3816141d9565b15614613576040517f08c379a000000000000000000000000000000000000000000000000000000000815260040161460a90615f71565b60405180910390fd5b61462160008383600161421a565b61462a816141d9565b1561466a576040517f08c379a000000000000000000000000000000000000000000000000000000000815260040161466190615f71565b60405180910390fd5b6001600360008473ffffffffffffffffffffffffffffffffffffffff1673ffffffffffffffffffffffffffffffffffffffff16815260200190815260200160002060008282540192505081905550816002600083815260200190815260200160002060006101000a81548173ffffffffffffffffffffffffffffffffffffffff021916908373ffffffffffffffffffffffffffffffffffffffff160217905550808273ffffffffffffffffffffffffffffffffffffffff16600073ffffffffffffffffffffffffffffffffffffffff167fddf252ad1be2c89b69c2b068fc378daa952ba7f163c4a11628f55a4df523b3ef60405160405180910390a4614774600083836001614220565b5050565b6000808273ffffffffffffffffffffffffffffffffffffffff163b119050919050565b6040518060a0016040528060008152602001600060ff168152602001600060ff16815260200160008152602001600060038111156147dc576147db614c91565b5b81525090565b6000604051905090565b600080fd5b600080fd5b6000819050919050565b614809816147f6565b811461481457600080fd5b50565b60008135905061482681614800565b92915050565b600060208284031215614842576148416147ec565b5b600061485084828501614817565b91505092915050565b60007fffffffff0000000000000000000000000000000000000000000000000000000082169050919050565b61488e81614859565b811461489957600080fd5b50565b6000813590506148ab81614885565b92915050565b6000602082840312156148c7576148c66147ec565b5b60006148d58482850161489c565b91505092915050565b60008115159050919050565b6148f3816148de565b82525050565b600060208201905061490e60008301846148ea565b92915050565b600081519050919050565b600082825260208201905092915050565b60005b8381101561494e578082015181840152602081019050614933565b60008484015250505050565b6000601f19601f8301169050919050565b600061497682614914565b614980818561491f565b9350614990818560208601614930565b6149998161495a565b840191505092915050565b600060208201905081810360008301526149be818461496b565b905092915050565b600073ffffffffffffffffffffffffffffffffffffffff82169050919050565b60006149f1826149c6565b9050919050565b614a01816149e6565b82525050565b6000602082019050614a1c60008301846149f8565b92915050565b614a2b816149e6565b8114614a3657600080fd5b50565b600081359050614a4881614a22565b92915050565b60008060408385031215614a6557614a646147ec565b5b6000614a7385828601614a39565b9250506020614a8485828601614817565b9150509250929050565b60008060408385031215614aa557614aa46147ec565b5b6000614ab385828601614817565b9250506020614ac485828601614a39565b9150509250929050565b600081519050919050565b600082825260208201905092915050565b6000819050602082019050919050565b614b03816147f6565b82525050565b6000614b158383614afa565b60208301905092915050565b6000602082019050919050565b6000614b3982614ace565b614b438185614ad9565b9350614b4e83614aea565b8060005b83811015614b7f578151614b668882614b09565b9750614b7183614b21565b925050600181019050614b52565b5085935050505092915050565b60006020820190508181036000830152614ba68184614b2e565b905092915050565b60008060408385031215614bc557614bc46147ec565b5b6000614bd385828601614817565b9250506020614be485828601614817565b9150509250929050565b600080600060608486031215614c0757614c066147ec565b5b6000614c1586828701614a39565b9350506020614c2686828701614a39565b9250506040614c3786828701614817565b9150509250925092565b614c4a816147f6565b82525050565b600062ffffff82169050919050565b614c6881614c50565b82525050565b600067ffffffffffffffff82169050919050565b614c8b81614c6e565b82525050565b7f4e487b7100000000000000000000000000000000000000000000000000000000600052602160045260246000fd5b60028110614cd157614cd0614c91565b5b50565b6000819050614ce282614cc0565b919050565b6000614cf282614cd4565b9050919050565b614d0281614ce7565b82525050565b600061012082019050614d1e600083018c614c41565b614d2b602083018b614c5f565b614d38604083018a614c5f565b614d456060830189614c5f565b614d526080830188614c82565b614d5f60a0830187614c82565b614d6c60c0830186614cf9565b614d7960e0830185614c41565b614d87610100830184614c41565b9a9950505050505050505050565b600081519050919050565b600082825260208201905092915050565b6000819050602082019050919050565b600060ff82169050919050565b614dd781614dc1565b82525050565b60048110614dee57614ded614c91565b5b50565b6000819050614dff82614ddd565b919050565b6000614e0f82614df1565b9050919050565b614e1f81614e04565b82525050565b60a082016000820151614e3b6000850182614afa565b506020820151614e4e6020850182614dce565b506040820151614e616040850182614dce565b506060820151614e746060850182614afa565b506080820151614e876080850182614e16565b50505050565b6000614e998383614e25565b60a08301905092915050565b6000602082019050919050565b6000614ebd82614d95565b614ec78185614da0565b9350614ed283614db1565b8060005b83811015614f03578151614eea8882614e8d565b9750614ef583614ea5565b925050600181019050614ed6565b5085935050505092915050565b60006020820190508181036000830152614f2a8184614eb2565b905092915050565b614f3b81614dc1565b8114614f4657600080fd5b50565b600081359050614f5881614f32565b92915050565b600060208284031215614f7457614f736147ec565b5b6000614f8284828501614f49565b91505092915050565b600060208284031215614fa157614fa06147ec565b5b6000614faf84828501614a39565b91505092915050565b6000602082019050614fcd6000830184614c41565b92915050565b614fdc81614c50565b8114614fe757600080fd5b50565b600081359050614ff981614fd3565b92915050565b61500881614c6e565b811461501357600080fd5b50565b60008135905061502581614fff565b92915050565b600080fd5b7f4e487b7100000000000000000000000000000000000000000000000000000000600052604160045260246000fd5b6150688261495a565b810181811067ffffffffffffffff8211171561508757615086615030565b5b80604052505050565b600061509a6147e2565b90506150a6828261505f565b919050565b600067ffffffffffffffff8211156150c6576150c5615030565b5b602082029050602081019050919050565b600080fd5b600080fd5b600481106150ee57600080fd5b50565b600081359050615100816150e1565b92915050565b60006080828403121561511c5761511b6150dc565b5b6151266080615090565b9050600061513684828501614f49565b600083015250602061514a84828501614f49565b602083015250604061515e84828501614817565b6040830152506060615172848285016150f1565b60608301525092915050565b600061519161518c846150ab565b615090565b905080838252602082019050608084028301858111156151b4576151b36150d7565b5b835b818110156151dd57806151c98882615106565b8452602084019350506080810190506151b6565b5050509392505050565b600082601f8301126151fc576151fb61502b565b5b813561520c84826020860161517e565b91505092915050565b60008060008060008060c08789031215615232576152316147ec565b5b600061524089828a01614fea565b965050602061525189828a01614fea565b955050604061526289828a01614fea565b945050606061527389828a01615016565b935050608061528489828a01615016565b92505060a087013567ffffffffffffffff8111156152a5576152a46147f1565b5b6152b189828a016151e7565b9150509295509295509295565b6152c781614dc1565b82525050565b6152d681614e04565b82525050565b6000610100820190506152f2600083018b614c41565b6152ff602083018a614c41565b61530c60408301896152be565b6153196060830188614c41565b6153266080830187614c41565b61533360a08301866152be565b61534060c08301856152cd565b61534d60e0830184614c41565b9998505050505050505050565b615363816148de565b811461536e57600080fd5b50565b6000813590506153808161535a565b92915050565b6000806040838503121561539d5761539c6147ec565b5b60006153ab85828601614a39565b92505060206153bc85828601615371565b9150509250929050565b600080fd5b600067ffffffffffffffff8211156153e6576153e5615030565b5b6153ef8261495a565b9050602081019050919050565b82818337600083830152505050565b600061541e615419846153cb565b615090565b90508281526020810184848401111561543a576154396153c6565b5b6154458482856153fc565b509392505050565b600082601f8301126154625761546161502b565b5b813561547284826020860161540b565b91505092915050565b60008060008060808587031215615495576154946147ec565b5b60006154a387828801614a39565b94505060206154b487828801614a39565b93505060406154c587828801614817565b925050606085013567ffffffffffffffff8111156154e6576154e56147f1565b5b6154f28782880161544d565b91505092959194509250565b600060408201905061551360008301856152be565b61552060208301846152be565b9392505050565b6000806040838503121561553e5761553d6147ec565b5b600061554c85828601614a39565b925050602061555d85828601614a39565b9150509250929050565b7f4e487b7100000000000000000000000000000000000000000000000000000000600052602260045260246000fd5b600060028204905060018216806155ae57607f821691505b6020821081036155c1576155c0615567565b5b50919050565b7f4552433732313a20617070726f76616c20746f2063757272656e74206f776e6560008201527f7200000000000000000000000000000000000000000000000000000000000000602082015250565b600061562360218361491f565b915061562e826155c7565b604082019050919050565b6000602082019050818103600083015261565281615616565b9050919050565b7f4552433732313a20617070726f76652063616c6c6572206973206e6f7420746f60008201527f6b656e206f776e6572206f7220617070726f76656420666f7220616c6c000000602082015250565b60006156b5603d8361491f565b91506156c082615659565b604082019050919050565b600060208201905081810360008301526156e4816156a8565b9050919050565b7f4e487b7100000000000000000000000000000000000000000000000000000000600052601160045260246000fd5b6000615725826147f6565b91507fffffffffffffffffffffffffffffffffffffffffffffffffffffffffffffffff8203615757576157566156eb565b5b600182019050919050565b60006040820190506157776000830185614c41565b61578460208301846149f8565b9392505050565b7f4552433732313a2063616c6c6572206973206e6f7420746f6b656e206f776e6560008201527f72206f7220617070726f76656400000000000000000000000000000000000000602082015250565b60006157e7602d8361491f565b91506157f28261578b565b604082019050919050565b60006020820190508181036000830152615816816157da565b9050919050565b7f4e487b7100000000000000000000000000000000000000000000000000000000600052603260045260246000fd5b600081905092915050565b50565b600061586760008361584c565b915061587282615857565b600082019050919050565b60006158888261585a565b9150819050919050565b7f4552433732313a20696e76616c696420746f6b656e2049440000000000000000600082015250565b60006158c860188361491f565b91506158d382615892565b602082019050919050565b600060208201905081810360008301526158f7816158bb565b9050919050565b7f4552433732313a2061646472657373207a65726f206973206e6f74206120766160008201527f6c6964206f776e65720000000000000000000000000000000000000000000000602082015250565b600061595a60298361491f565b9150615965826158fe565b604082019050919050565b600060208201905081810360008301526159898161594d565b9050919050565b600060c0820190506159a56000830189614c5f565b6159b26020830188614c5f565b6159bf6040830187614c5f565b6159cc6060830186614c82565b6159d96080830185614c82565b6159e660a0830184614c41565b979650505050505050565b60006159fc826147f6565b915060008203615a0f57615a0e6156eb565b5b600182039050919050565b600081905092915050565b6000615a3082614914565b615a3a8185615a1a565b9350615a4a818560208601614930565b80840191505092915050565b6000615a628285615a25565b9150615a6e8284615a25565b91508190509392505050565b6000615a85826147f6565b9150615a90836147f6565b9250828203905081811115615aa857615aa76156eb565b5b92915050565b7f4e487b7100000000000000000000000000000000000000000000000000000000600052603160045260246000fd5b7f4552433732313a207472616e736665722066726f6d20696e636f72726563742060008201527f6f776e6572000000000000000000000000000000000000000000000000000000602082015250565b6000615b3960258361491f565b9150615b4482615add565b604082019050919050565b60006020820190508181036000830152615b6881615b2c565b9050919050565b7f4552433732313a207472616e7366657220746f20746865207a65726f2061646460008201527f7265737300000000000000000000000000000000000000000000000000000000602082015250565b6000615bcb60248361491f565b9150615bd682615b6f565b604082019050919050565b60006020820190508181036000830152615bfa81615bbe565b9050919050565b6000615c0c82614dc1565b9150615c1783614dc1565b9250828203905060ff811115615c3057615c2f6156eb565b5b92915050565b6000615c41826147f6565b9150615c4c836147f6565b9250828202615c5a816147f6565b91508282048414831517615c7157615c706156eb565b5b5092915050565b7f4e487b7100000000000000000000000000000000000000000000000000000000600052601260045260246000fd5b6000615cb2826147f6565b9150615cbd836147f6565b925082615ccd57615ccc615c78565b5b828204905092915050565b7f4552433732313a20617070726f766520746f2063616c6c657200000000000000600082015250565b6000615d0e60198361491f565b9150615d1982615cd8565b602082019050919050565b60006020820190508181036000830152615d3d81615d01565b9050919050565b7f4552433732313a207472616e7366657220746f206e6f6e20455243373231526560008201527f63656976657220696d706c656d656e7465720000000000000000000000000000602082015250565b6000615da060328361491f565b9150615dab82615d44565b604082019050919050565b60006020820190508181036000830152615dcf81615d93565b9050919050565b600081519050919050565b600082825260208201905092915050565b6000615dfd82615dd6565b615e078185615de1565b9350615e17818560208601614930565b615e208161495a565b840191505092915050565b6000608082019050615e4060008301876149f8565b615e4d60208301866149f8565b615e5a6040830185614c41565b8181036060830152615e6c8184615df2565b905095945050505050565b600081519050615e8681614885565b92915050565b600060208284031215615ea257615ea16147ec565b5b6000615eb084828501615e77565b91505092915050565b7f4552433732313a206d696e7420746f20746865207a65726f2061646472657373600082015250565b6000615eef60208361491f565b9150615efa82615eb9565b602082019050919050565b60006020820190508181036000830152615f1e81615ee2565b9050919050565b7f4552433732313a20746f6b656e20616c7265616479206d696e74656400000000600082015250565b6000615f5b601c8361491f565b9150615f6682615f25565b602082019050919050565b60006020820190508181036000830152615f8a81615f4e565b905091905056fea26469706673582212209fde11eb62c49363ca0d3828b6ac450bb8a1049f0eb77af98b83c72caf55ee0864736f6c63430008120033",
  "linkReferences": {},
  "deployedLinkReferences": {}
}