{
  "_format": "hh-sol-artifact-1",
  "contractName": "Aerolineas",
  "sourceName": "contracts/Aerolineas.sol",
  "abi": [
    {
      "inputs": [
        {
          "internalType": "string",
          "name": "_name",
          "type": "string"
        },
        {
          "internalType": "string",
          "name": "_symbol",
          "type": "string"
        },
        {
          "internalType": "uint8",
          "name": "_feeCancellation",
          "type": "uint8"
        },
        {
          "internalType": "uint8",
          "name": "_feeResale",
          "type": "uint8"
        }
      ],
      "stateMutability": "nonpayable",
      "type": "constructor"
    },
    {
      "inputs": [],
      "name": "FlightAlreadyDisabled",
      "type": "error"
    },
    {
      "inputs": [],
      "name": "FlightAlreadyEnabled",
      "type": "error"
    },
    {
      "inputs": [],
      "name": "FlightNotAvailable",
      "type": "error"
    },
    {
      "inputs": [],
      "name": "IncorrectPaymentAmount",
      "type": "error"
    },
    {
      "inputs": [],
      "name": "InsufficientSeatsProvided",
      "type": "error"
    },
    {
      "inputs": [],
      "name": "InvalidAddressProvided",
      "type": "error"
    },
    {
      "inputs": [],
      "name": "InvalidPercentageNumber",
      "type": "error"
    },
    {
      "inputs": [],
      "name": "InvalidPercentageNumber",
      "type": "error"
    },
    {
      "inputs": [],
      "name": "InvalidPriceProvided",
      "type": "error"
    },
    {
      "inputs": [],
      "name": "NoSeatLeft",
      "type": "error"
    },
    {
      "inputs": [],
      "name": "NotOwnReservation",
      "type": "error"
    },
    {
      "inputs": [],
      "name": "NotOwner",
      "type": "error"
    },
    {
      "inputs": [],
      "name": "NotReservationOwner",
      "type": "error"
    },
    {
      "inputs": [],
      "name": "RefundFailed",
      "type": "error"
    },
    {
      "inputs": [],
      "name": "ReservationAlreadyTakenOnThisFlight",
      "type": "error"
    },
    {
      "inputs": [],
      "name": "SeatAlreadyAvailable",
      "type": "error"
    },
    {
      "inputs": [],
      "name": "SeatNotAvailable",
      "type": "error"
    },
    {
      "inputs": [],
      "name": "SeatOnResaleOrResold",
      "type": "error"
    },
    {
      "inputs": [],
      "name": "TransferFailed",
      "type": "error"
    },
    {
      "anonymous": false,
      "inputs": [
        {
          "indexed": true,
          "internalType": "address",
          "name": "owner",
          "type": "address"
        },
        {
          "indexed": true,
          "internalType": "address",
          "name": "approved",
          "type": "address"
        },
        {
          "indexed": true,
          "internalType": "uint256",
          "name": "tokenId",
          "type": "uint256"
        }
      ],
      "name": "Approval",
      "type": "event"
    },
    {
      "anonymous": false,
      "inputs": [
        {
          "indexed": true,
          "internalType": "address",
          "name": "owner",
          "type": "address"
        },
        {
          "indexed": true,
          "internalType": "address",
          "name": "operator",
          "type": "address"
        },
        {
          "indexed": false,
          "internalType": "bool",
          "name": "approved",
          "type": "bool"
        }
      ],
      "name": "ApprovalForAll",
      "type": "event"
    },
    {
      "anonymous": false,
      "inputs": [
        {
          "indexed": true,
          "internalType": "uint256",
          "name": "flightId",
          "type": "uint256"
        },
        {
          "indexed": false,
          "internalType": "uint24",
          "name": "from",
          "type": "uint24"
        },
        {
          "indexed": false,
          "internalType": "uint24",
          "name": "to",
          "type": "uint24"
        },
        {
          "indexed": false,
          "internalType": "uint64",
          "name": "departure",
          "type": "uint64"
        },
        {
          "indexed": false,
          "internalType": "uint64",
          "name": "arrival",
          "type": "uint64"
        },
        {
          "indexed": false,
          "internalType": "uint256",
          "name": "totalSeats",
          "type": "uint256"
        }
      ],
      "name": "FlightCreated",
      "type": "event"
    },
    {
      "anonymous": false,
      "inputs": [
        {
          "indexed": true,
          "internalType": "uint256",
          "name": "flightId",
          "type": "uint256"
        }
      ],
      "name": "FlightDisabled",
      "type": "event"
    },
    {
      "anonymous": false,
      "inputs": [
        {
          "indexed": true,
          "internalType": "uint256",
          "name": "flightId",
          "type": "uint256"
        }
      ],
      "name": "FlightEnabled",
      "type": "event"
    },
    {
      "anonymous": false,
      "inputs": [
        {
          "indexed": true,
          "internalType": "uint256",
          "name": "reservationId",
          "type": "uint256"
        }
      ],
      "name": "ReservationCanceled",
      "type": "event"
    },
    {
      "anonymous": false,
      "inputs": [
        {
          "indexed": true,
          "internalType": "uint256",
          "name": "reservationId",
          "type": "uint256"
        },
        {
          "indexed": true,
          "internalType": "uint256",
          "name": "flightId",
          "type": "uint256"
        },
        {
          "indexed": false,
          "internalType": "uint256",
          "name": "seatId",
          "type": "uint256"
        },
        {
          "indexed": false,
          "internalType": "address",
          "name": "passenger",
          "type": "address"
        }
      ],
      "name": "ReservationMade",
      "type": "event"
    },
    {
      "anonymous": false,
      "inputs": [
        {
          "indexed": true,
          "internalType": "uint256",
          "name": "reservationId",
          "type": "uint256"
        },
        {
          "indexed": true,
          "internalType": "address",
          "name": "previousOwner",
          "type": "address"
        },
        {
          "indexed": true,
          "internalType": "address",
          "name": "newOwner",
          "type": "address"
        }
      ],
      "name": "ReservationTransferred",
      "type": "event"
    },
    {
      "anonymous": false,
      "inputs": [
        {
          "indexed": true,
          "internalType": "address",
          "name": "from",
          "type": "address"
        },
        {
          "indexed": true,
          "internalType": "address",
          "name": "to",
          "type": "address"
        },
        {
          "indexed": true,
          "internalType": "uint256",
          "name": "tokenId",
          "type": "uint256"
        }
      ],
      "name": "Transfer",
      "type": "event"
    },
    {
      "inputs": [
        {
          "internalType": "address",
          "name": "to",
          "type": "address"
        },
        {
          "internalType": "uint256",
          "name": "tokenId",
          "type": "uint256"
        }
      ],
      "name": "approve",
      "outputs": [],
      "stateMutability": "nonpayable",
      "type": "function"
    },
    {
      "inputs": [
        {
          "internalType": "uint256",
          "name": "",
          "type": "uint256"
        }
      ],
      "name": "availableFlights",
      "outputs": [
        {
          "internalType": "uint256",
          "name": "",
          "type": "uint256"
        }
      ],
      "stateMutability": "view",
      "type": "function"
    },
    {
      "inputs": [
        {
          "internalType": "address",
          "name": "owner",
          "type": "address"
        }
      ],
      "name": "balanceOf",
      "outputs": [
        {
          "internalType": "uint256",
          "name": "",
          "type": "uint256"
        }
      ],
      "stateMutability": "view",
      "type": "function"
    },
    {
      "inputs": [
        {
          "internalType": "uint256",
          "name": "_reservationId",
          "type": "uint256"
        }
      ],
      "name": "cancelReservation",
      "outputs": [],
      "stateMutability": "nonpayable",
      "type": "function"
    },
    {
      "inputs": [
        {
          "internalType": "uint24",
          "name": "_from",
          "type": "uint24"
        },
        {
          "internalType": "uint24",
          "name": "_to",
          "type": "uint24"
        },
        {
          "internalType": "uint64",
          "name": "_departure",
          "type": "uint64"
        },
        {
          "internalType": "uint64",
          "name": "_arrival",
          "type": "uint64"
        },
        {
          "components": [
            {
              "internalType": "enum Aerolineas.SeatColumn",
              "name": "column",
              "type": "uint8"
            },
            {
              "internalType": "uint256",
              "name": "price",
              "type": "uint256"
            },
            {
              "internalType": "uint8",
              "name": "row",
              "type": "uint8"
            },
            {
              "internalType": "enum Aerolineas.SeatStatus",
              "name": "status",
              "type": "uint8"
            }
          ],
          "internalType": "struct Aerolineas.Seat[]",
          "name": "_seats",
          "type": "tuple[]"
        }
      ],
      "name": "createFlight",
      "outputs": [],
      "stateMutability": "nonpayable",
      "type": "function"
    },
    {
      "inputs": [
        {
          "internalType": "uint256",
          "name": "_flightId",
          "type": "uint256"
        }
      ],
      "name": "disableFlight",
      "outputs": [],
      "stateMutability": "nonpayable",
      "type": "function"
    },
    {
      "inputs": [
        {
          "internalType": "uint256",
          "name": "_flightId",
          "type": "uint256"
        }
      ],
      "name": "enableFlight",
      "outputs": [],
      "stateMutability": "nonpayable",
      "type": "function"
    },
    {
      "inputs": [
        {
          "internalType": "uint256",
          "name": "_reservationId",
          "type": "uint256"
        },
        {
          "internalType": "address",
          "name": "_newOwner",
          "type": "address"
        }
      ],
      "name": "freeTransferReservation",
      "outputs": [],
      "stateMutability": "nonpayable",
      "type": "function"
    },
    {
      "inputs": [
        {
          "internalType": "uint256",
          "name": "tokenId",
          "type": "uint256"
        }
      ],
      "name": "getApproved",
      "outputs": [
        {
          "internalType": "address",
          "name": "",
          "type": "address"
        }
      ],
      "stateMutability": "view",
      "type": "function"
    },
    {
      "inputs": [],
      "name": "getAvailableFlights",
      "outputs": [
        {
          "internalType": "uint256[]",
          "name": "",
          "type": "uint256[]"
        }
      ],
      "stateMutability": "view",
      "type": "function"
    },
    {
      "inputs": [],
      "name": "getFees",
      "outputs": [
        {
          "internalType": "uint8",
          "name": "",
          "type": "uint8"
        },
        {
          "internalType": "uint8",
          "name": "",
          "type": "uint8"
        }
      ],
      "stateMutability": "view",
      "type": "function"
    },
    {
      "inputs": [
        {
          "internalType": "uint256",
          "name": "_flightId",
          "type": "uint256"
        }
      ],
      "name": "getFlight",
      "outputs": [
        {
          "internalType": "uint24",
          "name": "from",
          "type": "uint24"
        },
        {
          "internalType": "uint24",
          "name": "to",
          "type": "uint24"
        },
        {
          "internalType": "uint64",
          "name": "departure",
          "type": "uint64"
        },
        {
          "internalType": "uint64",
          "name": "arrival",
          "type": "uint64"
        },
        {
          "internalType": "enum Aerolineas.FlightStatus",
          "name": "status",
          "type": "uint8"
        },
        {
          "internalType": "uint256",
          "name": "seatsLeft",
          "type": "uint256"
        },
        {
          "internalType": "uint256",
          "name": "totalSeats",
          "type": "uint256"
        }
      ],
      "stateMutability": "view",
      "type": "function"
    },
    {
      "inputs": [],
      "name": "getReservationIdsByAddress",
      "outputs": [
        {
          "internalType": "uint256[]",
          "name": "",
          "type": "uint256[]"
        }
      ],
      "stateMutability": "view",
      "type": "function"
    },
    {
      "inputs": [
        {
          "internalType": "uint256",
          "name": "_reservationId",
          "type": "uint256"
        }
      ],
      "name": "getReservationInfoById",
      "outputs": [
        {
          "internalType": "uint256",
          "name": "flight",
          "type": "uint256"
        },
        {
          "internalType": "uint24",
          "name": "from",
          "type": "uint24"
        },
        {
          "internalType": "uint24",
          "name": "to",
          "type": "uint24"
        },
        {
          "internalType": "uint64",
          "name": "departure",
          "type": "uint64"
        },
        {
          "internalType": "uint64",
          "name": "arrival",
          "type": "uint64"
        },
        {
          "internalType": "enum Aerolineas.FlightStatus",
          "name": "flightStatus",
          "type": "uint8"
        },
        {
          "internalType": "enum Aerolineas.SeatColumn",
          "name": "column",
          "type": "uint8"
        },
        {
          "internalType": "uint256",
          "name": "seat",
          "type": "uint256"
        },
        {
          "internalType": "uint256",
          "name": "price",
          "type": "uint256"
        },
        {
          "internalType": "uint8",
          "name": "row",
          "type": "uint8"
        },
        {
          "internalType": "enum Aerolineas.SeatStatus",
          "name": "seatStatus",
          "type": "uint8"
        }
      ],
      "stateMutability": "view",
      "type": "function"
    },
    {
      "inputs": [
        {
          "internalType": "uint256",
          "name": "_flightId",
          "type": "uint256"
        }
      ],
      "name": "getSeatsFromFlight",
      "outputs": [
        {
          "components": [
            {
              "internalType": "enum Aerolineas.SeatColumn",
              "name": "column",
              "type": "uint8"
            },
            {
              "internalType": "uint256",
              "name": "id",
              "type": "uint256"
            },
            {
              "internalType": "uint256",
              "name": "price",
              "type": "uint256"
            },
            {
              "internalType": "uint8",
              "name": "row",
              "type": "uint8"
            },
            {
              "internalType": "enum Aerolineas.SeatStatus",
              "name": "status",
              "type": "uint8"
            }
          ],
          "internalType": "struct Aerolineas.SeatWithId[]",
          "name": "",
          "type": "tuple[]"
        }
      ],
      "stateMutability": "view",
      "type": "function"
    },
    {
      "inputs": [
        {
          "internalType": "address",
          "name": "owner",
          "type": "address"
        },
        {
          "internalType": "address",
          "name": "operator",
          "type": "address"
        }
      ],
      "name": "isApprovedForAll",
      "outputs": [
        {
          "internalType": "bool",
          "name": "",
          "type": "bool"
        }
      ],
      "stateMutability": "view",
      "type": "function"
    },
    {
      "inputs": [],
      "name": "name",
      "outputs": [
        {
          "internalType": "string",
          "name": "",
          "type": "string"
        }
      ],
      "stateMutability": "view",
      "type": "function"
    },
    {
      "inputs": [],
      "name": "owner",
      "outputs": [
        {
          "internalType": "address",
          "name": "",
          "type": "address"
        }
      ],
      "stateMutability": "view",
      "type": "function"
    },
    {
      "inputs": [
        {
          "internalType": "uint256",
          "name": "tokenId",
          "type": "uint256"
        }
      ],
      "name": "ownerOf",
      "outputs": [
        {
          "internalType": "address",
          "name": "",
          "type": "address"
        }
      ],
      "stateMutability": "view",
      "type": "function"
    },
    {
      "inputs": [
        {
          "internalType": "uint256",
          "name": "_reservationId",
          "type": "uint256"
        },
        {
          "internalType": "uint256",
          "name": "_resalePrice",
          "type": "uint256"
        }
      ],
      "name": "resaleReservation",
      "outputs": [],
      "stateMutability": "nonpayable",
      "type": "function"
    },
    {
      "inputs": [
        {
          "internalType": "uint256",
          "name": "_flightId",
          "type": "uint256"
        },
        {
          "internalType": "uint256",
          "name": "_seatId",
          "type": "uint256"
        }
      ],
      "name": "reserveFlight",
      "outputs": [],
      "stateMutability": "payable",
      "type": "function"
    },
    {
      "inputs": [
        {
          "internalType": "address",
          "name": "from",
          "type": "address"
        },
        {
          "internalType": "address",
          "name": "to",
          "type": "address"
        },
        {
          "internalType": "uint256",
          "name": "tokenId",
          "type": "uint256"
        }
      ],
      "name": "safeTransferFrom",
      "outputs": [],
      "stateMutability": "nonpayable",
      "type": "function"
    },
    {
      "inputs": [
        {
          "internalType": "address",
          "name": "from",
          "type": "address"
        },
        {
          "internalType": "address",
          "name": "to",
          "type": "address"
        },
        {
          "internalType": "uint256",
          "name": "tokenId",
          "type": "uint256"
        },
        {
          "internalType": "bytes",
          "name": "data",
          "type": "bytes"
        }
      ],
      "name": "safeTransferFrom",
      "outputs": [],
      "stateMutability": "nonpayable",
      "type": "function"
    },
    {
      "inputs": [
        {
          "internalType": "address",
          "name": "operator",
          "type": "address"
        },
        {
          "internalType": "bool",
          "name": "approved",
          "type": "bool"
        }
      ],
      "name": "setApprovalForAll",
      "outputs": [],
      "stateMutability": "nonpayable",
      "type": "function"
    },
    {
      "inputs": [
        {
          "internalType": "bytes4",
          "name": "interfaceId",
          "type": "bytes4"
        }
      ],
      "name": "supportsInterface",
      "outputs": [
        {
          "internalType": "bool",
          "name": "",
          "type": "bool"
        }
      ],
      "stateMutability": "view",
      "type": "function"
    },
    {
      "inputs": [],
      "name": "symbol",
      "outputs": [
        {
          "internalType": "string",
          "name": "",
          "type": "string"
        }
      ],
      "stateMutability": "view",
      "type": "function"
    },
    {
      "inputs": [
        {
          "internalType": "uint256",
          "name": "tokenId",
          "type": "uint256"
        }
      ],
      "name": "tokenURI",
      "outputs": [
        {
          "internalType": "string",
          "name": "",
          "type": "string"
        }
      ],
      "stateMutability": "view",
      "type": "function"
    },
    {
      "inputs": [
        {
          "internalType": "address",
          "name": "from",
          "type": "address"
        },
        {
          "internalType": "address",
          "name": "to",
          "type": "address"
        },
        {
          "internalType": "uint256",
          "name": "tokenId",
          "type": "uint256"
        }
      ],
      "name": "transferFrom",
      "outputs": [],
      "stateMutability": "nonpayable",
      "type": "function"
    },
    {
      "inputs": [
        {
          "internalType": "address",
          "name": "_newOwner",
          "type": "address"
        }
      ],
      "name": "transferOwnership",
      "outputs": [],
      "stateMutability": "nonpayable",
      "type": "function"
    },
    {
      "inputs": [
        {
          "internalType": "uint256",
          "name": "_reservationId",
          "type": "uint256"
        }
      ],
      "name": "undoResaleReservation",
      "outputs": [],
      "stateMutability": "nonpayable",
      "type": "function"
    },
    {
      "inputs": [
        {
          "internalType": "uint8",
          "name": "_feeCancellation",
          "type": "uint8"
        }
      ],
      "name": "updateFeeCancellation",
      "outputs": [],
      "stateMutability": "nonpayable",
      "type": "function"
    },
    {
      "inputs": [
        {
          "internalType": "uint8",
          "name": "_feeResale",
          "type": "uint8"
        }
      ],
      "name": "updateFeeResale",
      "outputs": [],
      "stateMutability": "nonpayable",
      "type": "function"
    },
    {
      "inputs": [],
      "name": "withdraw",
      "outputs": [],
      "stateMutability": "nonpayable",
      "type": "function"
    }
  ],
  "bytecode": "0x60806040523480156200001157600080fd5b5060405162006675380380620066758339818101604052810190620000379190620002ff565b838381600090816200004a9190620005fa565b5080600190816200005c9190620005fa565b50505033600660006101000a81548173ffffffffffffffffffffffffffffffffffffffff021916908373ffffffffffffffffffffffffffffffffffffffff16021790555060648160ff161180620000b6575060648260ff16115b15620000ee576040517f0bbac80400000000000000000000000000000000000000000000000000000000815260040160405180910390fd5b80600660146101000a81548160ff021916908360ff16021790555081600660156101000a81548160ff021916908360ff16021790555050505050620006e1565b6000604051905090565b600080fd5b600080fd5b600080fd5b600080fd5b6000601f19601f8301169050919050565b7f4e487b7100000000000000000000000000000000000000000000000000000000600052604160045260246000fd5b62000197826200014c565b810181811067ffffffffffffffff82111715620001b957620001b86200015d565b5b80604052505050565b6000620001ce6200012e565b9050620001dc82826200018c565b919050565b600067ffffffffffffffff821115620001ff57620001fe6200015d565b5b6200020a826200014c565b9050602081019050919050565b60005b83811015620002375780820151818401526020810190506200021a565b60008484015250505050565b60006200025a6200025484620001e1565b620001c2565b90508281526020810184848401111562000279576200027862000147565b5b6200028684828562000217565b509392505050565b600082601f830112620002a657620002a562000142565b5b8151620002b884826020860162000243565b91505092915050565b600060ff82169050919050565b620002d981620002c1565b8114620002e557600080fd5b50565b600081519050620002f981620002ce565b92915050565b600080600080608085870312156200031c576200031b62000138565b5b600085015167ffffffffffffffff8111156200033d576200033c6200013d565b5b6200034b878288016200028e565b945050602085015167ffffffffffffffff8111156200036f576200036e6200013d565b5b6200037d878288016200028e565b93505060406200039087828801620002e8565b9250506060620003a387828801620002e8565b91505092959194509250565b600081519050919050565b7f4e487b7100000000000000000000000000000000000000000000000000000000600052602260045260246000fd5b600060028204905060018216806200040257607f821691505b602082108103620004185762000417620003ba565b5b50919050565b60008190508160005260206000209050919050565b60006020601f8301049050919050565b600082821b905092915050565b600060088302620004827fffffffffffffffffffffffffffffffffffffffffffffffffffffffffffffffff8262000443565b6200048e868362000443565b95508019841693508086168417925050509392505050565b6000819050919050565b6000819050919050565b6000620004db620004d5620004cf84620004a6565b620004b0565b620004a6565b9050919050565b6000819050919050565b620004f783620004ba565b6200050f6200050682620004e2565b84845462000450565b825550505050565b600090565b6200052662000517565b62000533818484620004ec565b505050565b5b818110156200055b576200054f6000826200051c565b60018101905062000539565b5050565b601f821115620005aa5762000574816200041e565b6200057f8462000433565b810160208510156200058f578190505b620005a76200059e8562000433565b83018262000538565b50505b505050565b600082821c905092915050565b6000620005cf60001984600802620005af565b1980831691505092915050565b6000620005ea8383620005bc565b9150826002028217905092915050565b6200060582620003af565b67ffffffffffffffff8111156200062157620006206200015d565b5b6200062d8254620003e9565b6200063a8282856200055f565b600060209050601f8311600181146200067257600084156200065d578287015190505b620006698582620005dc565b865550620006d9565b601f19841662000682866200041e565b60005b82811015620006ac5784890151825560018201915060208501945060208101905062000685565b86831015620006cc5784890151620006c8601f891682620005bc565b8355505b6001600288020188555050505b505050505050565b615f8480620006f16000396000f3fe6080604052600436106101ed5760003560e01c806370a082311161010d578063b6920dd2116100a0578063db8d55f11161006f578063db8d55f114610709578063e6bfcfd514610735578063e985e9c514610772578063f2fde38b146107af578063f49826aa146107d8576101ed565b8063b6920dd214610651578063b88d4fde1461067a578063bd0942c6146106a3578063c87b56dd146106cc576101ed565b806395d89b41116100dc57806395d89b41146105ab578063a22cb465146105d6578063a8056f19146105ff578063ae5e6cf414610628576101ed565b806370a08231146104e05780638bc2e7d61461051d5780638da5cb5b14610564578063946487fd1461058f576101ed565b806323b872dd116101855780633ccfd60b116101545780633ccfd60b1461043857806342842e0e1461044f5780635463d03c146104785780636352211e146104a3576101ed565b806323b872dd146103665780633a4396cb1461038f5780633b76312e146103d25780633bc97c071461040f576101ed565b8063095ea7b3116101c1578063095ea7b3146102c057806312a4aacd146102e95780631a9ffee7146103125780631da897d71461033d576101ed565b8062fa258e146101f257806301ffc9a71461021b57806306fdde0314610258578063081812fc14610283575b600080fd5b3480156101fe57600080fd5b506102196004803603810190610214919061477e565b610801565b005b34801561022757600080fd5b50610242600480360381019061023d9190614803565b610983565b60405161024f919061484b565b60405180910390f35b34801561026457600080fd5b5061026d610a65565b60405161027a91906148f6565b60405180910390f35b34801561028f57600080fd5b506102aa60048036038101906102a5919061477e565b610af7565b6040516102b79190614959565b60405180910390f35b3480156102cc57600080fd5b506102e760048036038101906102e291906149a0565b610b3d565b005b3480156102f557600080fd5b50610310600480360381019061030b91906149e0565b610c54565b005b34801561031e57600080fd5b50610327610daf565b6040516103349190614ade565b60405180910390f35b34801561034957600080fd5b50610364600480360381019061035f9190614b00565b610e07565b005b34801561037257600080fd5b5061038d60048036038101906103889190614b40565b611008565b005b34801561039b57600080fd5b506103b660048036038101906103b1919061477e565b611068565b6040516103c99796959493929190614c5a565b60405180910390f35b3480156103de57600080fd5b506103f960048036038101906103f4919061477e565b611119565b6040516104069190614e8c565b60405180910390f35b34801561041b57600080fd5b5061043660048036038101906104319190614eda565b611315565b005b34801561044457600080fd5b5061044d6113f8565b005b34801561045b57600080fd5b5061047660048036038101906104719190614b40565b611547565b005b34801561048457600080fd5b5061048d611567565b60405161049a9190614ade565b60405180910390f35b3480156104af57600080fd5b506104ca60048036038101906104c5919061477e565b6115fc565b6040516104d79190614959565b60405180910390f35b3480156104ec57600080fd5b5061050760048036038101906105029190614f07565b611682565b6040516105149190614f34565b60405180910390f35b34801561052957600080fd5b50610544600480360381019061053f919061477e565b611739565b60405161055b9b9a99989796959493929190614f7c565b60405180910390f35b34801561057057600080fd5b50610579611941565b6040516105869190614959565b60405180910390f35b6105a960048036038101906105a49190614b00565b611967565b005b3480156105b757600080fd5b506105c061217c565b6040516105cd91906148f6565b60405180910390f35b3480156105e257600080fd5b506105fd60048036038101906105f89190615053565b61220e565b005b34801561060b57600080fd5b506106266004803603810190610621919061477e565b612224565b005b34801561063457600080fd5b5061064f600480360381019061064a919061477e565b6123fb565b005b34801561065d57600080fd5b5061067860048036038101906106739190614eda565b61299f565b005b34801561068657600080fd5b506106a1600480360381019061069c91906151c8565b612a82565b005b3480156106af57600080fd5b506106ca60048036038101906106c5919061477e565b612ae4565b005b3480156106d857600080fd5b506106f360048036038101906106ee919061477e565b612c83565b60405161070091906148f6565b60405180910390f35b34801561071557600080fd5b5061071e612ceb565b60405161072c92919061524b565b60405180910390f35b34801561074157600080fd5b5061075c6004803603810190610757919061477e565b612d9d565b6040516107699190614f34565b60405180910390f35b34801561077e57600080fd5b5061079960048036038101906107949190615274565b612dc1565b6040516107a6919061484b565b60405180910390f35b3480156107bb57600080fd5b506107d660048036038101906107d19190614f07565b612e55565b005b3480156107e457600080fd5b506107ff60048036038101906107fa919061549b565b612f86565b005b600660009054906101000a900473ffffffffffffffffffffffffffffffffffffffff1673ffffffffffffffffffffffffffffffffffffffff163373ffffffffffffffffffffffffffffffffffffffff1614610888576040517f30cd747100000000000000000000000000000000000000000000000000000000815260040160405180910390fd5b6000600181111561089c5761089b614bd4565b5b600b600083815260200190815260200160002060000160169054906101000a900460ff1660018111156108d2576108d1614bd4565b5b03610909576040517f51eee50a00000000000000000000000000000000000000000000000000000000815260040160405180910390fd5b6000600b600083815260200190815260200160002060000160166101000a81548160ff0219169083600181111561094357610942614bd4565b5b0217905550610953600a826133ea565b807f459b0e36d84045fd879e214bd3271b2337df52e3cf3dec3f07b06a66387a608460405160405180910390a250565b60007f80ac58cd000000000000000000000000000000000000000000000000000000007bffffffffffffffffffffffffffffffffffffffffffffffffffffffff1916827bffffffffffffffffffffffffffffffffffffffffffffffffffffffff19161480610a4e57507f5b5e139f000000000000000000000000000000000000000000000000000000007bffffffffffffffffffffffffffffffffffffffffffffffffffffffff1916827bffffffffffffffffffffffffffffffffffffffffffffffffffffffff1916145b80610a5e5750610a5d826134b0565b5b9050919050565b606060008054610a7490615561565b80601f0160208091040260200160405190810160405280929190818152602001828054610aa090615561565b8015610aed5780601f10610ac257610100808354040283529160200191610aed565b820191906000526020600020905b815481529060010190602001808311610ad057829003601f168201915b5050505050905090565b6000610b028261351a565b6004600083815260200190815260200160002060009054906101000a900473ffffffffffffffffffffffffffffffffffffffff169050919050565b6000610b48826115fc565b90508073ffffffffffffffffffffffffffffffffffffffff168373ffffffffffffffffffffffffffffffffffffffff1603610bb8576040517f08c379a0000000000000000000000000000000000000000000000000000000008152600401610baf90615604565b60405180910390fd5b8073ffffffffffffffffffffffffffffffffffffffff16610bd7613565565b73ffffffffffffffffffffffffffffffffffffffff161480610c065750610c0581610c00613565565b612dc1565b5b610c45576040517f08c379a0000000000000000000000000000000000000000000000000000000008152600401610c3c90615696565b60405180910390fd5b610c4f838361356d565b505050565b6000600b6000600c60008681526020019081526020016000206000015481526020019081526020016000209050600180811115610c9457610c93614bd4565b5b8160000160169054906101000a900460ff166001811115610cb857610cb7614bd4565b5b14610cef576040517fcb18af4e00000000000000000000000000000000000000000000000000000000815260040160405180910390fd5b610d37600d60003373ffffffffffffffffffffffffffffffffffffffff1673ffffffffffffffffffffffffffffffffffffffff168152602001908152602001600020846133ea565b600d60008373ffffffffffffffffffffffffffffffffffffffff1673ffffffffffffffffffffffffffffffffffffffff1681526020019081526020016000206009549080600181540180825580915050600190039060005260206000200160009091909190915055610daa833384613626565b505050565b6060600a805480602002602001604051908101604052809291908181526020018280548015610dfd57602002820191906000526020600020905b815481526020019060010190808311610de9575b5050505050905090565b3373ffffffffffffffffffffffffffffffffffffffff16610e27836115fc565b73ffffffffffffffffffffffffffffffffffffffff1614610e74576040517fd5dbc92400000000000000000000000000000000000000000000000000000000815260040160405180910390fd5b6001811015610eaf576040517f08081d0d00000000000000000000000000000000000000000000000000000000815260040160405180910390fd5b6000600c600084815260200190815260200160002090506000600b6000836000015481526020019081526020016000209050600180811115610ef457610ef3614bd4565b5b8160000160169054906101000a900460ff166001811115610f1857610f17614bd4565b5b14610f4f576040517fcb18af4e00000000000000000000000000000000000000000000000000000000815260040160405180910390fd5b82600e6000846001015481526020019081526020016000206001018190555083600e60008460010154815260200190815260200160002060000181905550806001016000815480929190610fa2906156e5565b91905055506001600b60008460000154815260200190815260200160002060040160008460010154815260200190815260200160002060020160016101000a81548160ff02191690836003811115610ffd57610ffc614bd4565b5b021790555050505050565b611019611013613565565b826138c9565b611058576040517f08c379a000000000000000000000000000000000000000000000000000000000815260040161104f9061579f565b60405180910390fd5b61106383838361395e565b505050565b600080600080600080600080600b60008a815260200190815260200160002090508060000160009054906101000a900462ffffff168160000160039054906101000a900462ffffff168260000160069054906101000a900467ffffffffffffffff1683600001600e9054906101000a900467ffffffffffffffff168460000160169054906101000a900460ff1685600101548660020154975097509750975097509750975050919395979092949650565b60606000600b6000848152602001908152602001600020905060008160020154905060008167ffffffffffffffff8111156111575761115661509d565b5b60405190808252806020026020018201604052801561119057816020015b61117d6146de565b8152602001906001900390816111755790505b50905060005b828110156113095760008460030182815481106111b6576111b56157bf565b5b9060005260206000200154905060008560040160008381526020019081526020016000206001015490506000600e600084815260200190815260200160002060010154111561121957600e60008381526020019081526020016000206001015490505b6040518060a0016040528087600401600085815260200190815260200160002060000160009054906101000a900460ff16600581111561125c5761125b614bd4565b5b815260200183815260200182815260200187600401600085815260200190815260200160002060020160009054906101000a900460ff1660ff16815260200187600401600085815260200190815260200160002060020160019054906101000a900460ff1660038111156112d3576112d2614bd4565b5b8152508484815181106112e9576112e86157bf565b5b602002602001018190525050508080611301906156e5565b915050611196565b50809350505050919050565b600660009054906101000a900473ffffffffffffffffffffffffffffffffffffffff1673ffffffffffffffffffffffffffffffffffffffff163373ffffffffffffffffffffffffffffffffffffffff161461139c576040517f30cd747100000000000000000000000000000000000000000000000000000000815260040160405180910390fd5b60648160ff1611156113da576040517f0bbac80400000000000000000000000000000000000000000000000000000000815260040160405180910390fd5b80600660146101000a81548160ff021916908360ff16021790555050565b600660009054906101000a900473ffffffffffffffffffffffffffffffffffffffff1673ffffffffffffffffffffffffffffffffffffffff163373ffffffffffffffffffffffffffffffffffffffff161461147f576040517f30cd747100000000000000000000000000000000000000000000000000000000815260040160405180910390fd5b6000600660009054906101000a900473ffffffffffffffffffffffffffffffffffffffff1673ffffffffffffffffffffffffffffffffffffffff16476040516114c79061581f565b60006040518083038185875af1925050503d8060008114611504576040519150601f19603f3d011682016040523d82523d6000602084013e611509565b606091505b5050905080611544576040517f90b8ec1800000000000000000000000000000000000000000000000000000000815260040160405180910390fd5b50565b61156283838360405180602001604052806000815250612a82565b505050565b6060600d60003373ffffffffffffffffffffffffffffffffffffffff1673ffffffffffffffffffffffffffffffffffffffff1681526020019081526020016000208054806020026020016040519081016040528092919081815260200182805480156115f257602002820191906000526020600020905b8154815260200190600101908083116115de575b5050505050905090565b60008061160883613c57565b9050600073ffffffffffffffffffffffffffffffffffffffff168173ffffffffffffffffffffffffffffffffffffffff1603611679576040517f08c379a000000000000000000000000000000000000000000000000000000000815260040161167090615880565b60405180910390fd5b80915050919050565b60008073ffffffffffffffffffffffffffffffffffffffff168273ffffffffffffffffffffffffffffffffffffffff16036116f2576040517f08c379a00000000000000000000000000000000000000000000000000000000081526004016116e990615912565b60405180910390fd5b600360008373ffffffffffffffffffffffffffffffffffffffff1673ffffffffffffffffffffffffffffffffffffffff168152602001908152602001600020549050919050565b600080600080600080600080600080600080600c60008e815260200190815260200160002090508060020160009054906101000a900473ffffffffffffffffffffffffffffffffffffffff1673ffffffffffffffffffffffffffffffffffffffff163373ffffffffffffffffffffffffffffffffffffffff16146117e9576040517f967d279500000000000000000000000000000000000000000000000000000000815260040160405180910390fd5b6000600b600083600001548152602001908152602001600020905060008160040160008460010154815260200190815260200160002090506000816001015490506000600e60008660010154815260200190815260200160002060010154111561186b57600e6000856001015481526020019081526020016000206001015490505b83600001548360000160009054906101000a900462ffffff168460000160039054906101000a900462ffffff168560000160069054906101000a900467ffffffffffffffff1686600001600e9054906101000a900467ffffffffffffffff168760000160169054906101000a900460ff168760000160009054906101000a900460ff168a60010154888a60020160009054906101000a900460ff168b60020160019054906101000a900460ff169e509e509e509e509e509e509e509e509e509e509e505050505091939597999b90929496989a50565b600660009054906101000a900473ffffffffffffffffffffffffffffffffffffffff1681565b6000600b6000848152602001908152602001600020905060018081111561199157611990614bd4565b5b8160000160169054906101000a900460ff1660018111156119b5576119b4614bd4565b5b146119ec576040517fcb18af4e00000000000000000000000000000000000000000000000000000000815260040160405180910390fd5b600181600101541015611a2b576040517fbc2287e900000000000000000000000000000000000000000000000000000000815260040160405180910390fd5b600180811115611a3e57611a3d614bd4565b5b600f600085815260200190815260200160002060003373ffffffffffffffffffffffffffffffffffffffff1673ffffffffffffffffffffffffffffffffffffffff16815260200190815260200160002060009054906101000a900460ff166001811115611aae57611aad614bd4565b5b03611ae5576040517fbcde6ea100000000000000000000000000000000000000000000000000000000815260040160405180910390fd5b60026003811115611af957611af8614bd4565b5b81600401600084815260200190815260200160002060020160019054906101000a900460ff166003811115611b3157611b30614bd4565b5b1480611b855750600380811115611b4b57611b4a614bd4565b5b81600401600084815260200190815260200160002060020160019054906101000a900460ff166003811115611b8357611b82614bd4565b5b145b15611bbc576040517f46dbe62c00000000000000000000000000000000000000000000000000000000815260040160405180910390fd5b806001016000815480929190611bd190615932565b919050555060006003811115611bea57611be9614bd4565b5b81600401600084815260200190815260200160002060020160019054906101000a900460ff166003811115611c2257611c21614bd4565b5b03611e6f57806004016000838152602001908152602001600020600101543414611c78576040517f6992e1ff00000000000000000000000000000000000000000000000000000000815260040160405180910390fd5b60096000815480929190611c8b906156e5565b91905055506000600c600060095481526020019081526020016000209050838160000181905550828160010181905550338160020160006101000a81548173ffffffffffffffffffffffffffffffffffffffff021916908373ffffffffffffffffffffffffffffffffffffffff160217905550600282600401600085815260200190815260200160002060020160016101000a81548160ff02191690836003811115611d3a57611d39614bd4565b5b02179055506001600f600086815260200190815260200160002060003373ffffffffffffffffffffffffffffffffffffffff1673ffffffffffffffffffffffffffffffffffffffff16815260200190815260200160002060006101000a81548160ff02191690836001811115611db357611db2614bd4565b5b0217905550600d60003373ffffffffffffffffffffffffffffffffffffffff1673ffffffffffffffffffffffffffffffffffffffff1681526020019081526020016000206009549080600181540180825580915050600190039060005260206000200160009091909190915055611e2c33600954613c94565b836009547f3130135cd42e7dba01f6593aaf1692dbf76a2df8fcc779e99118304f3a3e3af58533604051611e6192919061595b565b60405180910390a350612177565b60016003811115611e8357611e82614bd4565b5b81600401600084815260200190815260200160002060020160019054906101000a900460ff166003811115611ebb57611eba614bd4565b5b03612176576000600e6000848152602001908152602001600020905080600101543414611f14576040517f6992e1ff00000000000000000000000000000000000000000000000000000000815260040160405180910390fd5b6000600c60008360000154815260200190815260200160002060020160009054906101000a900473ffffffffffffffffffffffffffffffffffffffff169050611f6282600001548233613626565b600383600401600086815260200190815260200160002060020160016101000a81548160ff02191690836003811115611f9e57611f9d614bd4565b5b021790555081600101548360040160008681526020019081526020016000206001018190555061200e600d60008373ffffffffffffffffffffffffffffffffffffffff1673ffffffffffffffffffffffffffffffffffffffff1681526020019081526020016000206009546133ea565b600d60003373ffffffffffffffffffffffffffffffffffffffff1673ffffffffffffffffffffffffffffffffffffffff168152602001908152602001600020600954908060018154018082558091505060019003906000526020600020016000909190919091505560008173ffffffffffffffffffffffffffffffffffffffff166120ac8460010154600660149054906101000a900460ff16613cb2565b6040516120b89061581f565b60006040518083038185875af1925050503d80600081146120f5576040519150601f19603f3d011682016040523d82523d6000602084013e6120fa565b606091505b5050905080612135576040517ff0c49d4400000000000000000000000000000000000000000000000000000000815260040160405180910390fd5b856009547f3130135cd42e7dba01f6593aaf1692dbf76a2df8fcc779e99118304f3a3e3af5873360405161216a92919061595b565b60405180910390a35050505b5b505050565b60606001805461218b90615561565b80601f01602080910402602001604051908101604052809291908181526020018280546121b790615561565b80156122045780601f106121d957610100808354040283529160200191612204565b820191906000526020600020905b8154815290600101906020018083116121e757829003601f168201915b5050505050905090565b612220612219613565565b8383613d21565b5050565b3373ffffffffffffffffffffffffffffffffffffffff16612244826115fc565b73ffffffffffffffffffffffffffffffffffffffff1614612291576040517fd5dbc92400000000000000000000000000000000000000000000000000000000815260040160405180910390fd5b6000600b6000600c600085815260200190815260200160002060000154815260200190815260200160002090506001808111156122d1576122d0614bd4565b5b8160000160169054906101000a900460ff1660018111156122f5576122f4614bd4565b5b1461232c576040517fcb18af4e00000000000000000000000000000000000000000000000000000000815260040160405180910390fd5b80600101600081548092919061234190615932565b91905055506000600b6000600c60008681526020019081526020016000206000015481526020019081526020016000206004016000600c600086815260200190815260200160002060010154815260200190815260200160002060020160016101000a81548160ff021916908360038111156123c0576123bf614bd4565b5b02179055506000600e6000600c6000868152602001908152602001600020600101548152602001908152602001600020600101819055505050565b3373ffffffffffffffffffffffffffffffffffffffff1661241b826115fc565b73ffffffffffffffffffffffffffffffffffffffff1614612468576040517fd5dbc92400000000000000000000000000000000000000000000000000000000815260040160405180910390fd5b6000600c600083815260200190815260200160002060405180606001604052908160008201548152602001600182015481526020016002820160009054906101000a900473ffffffffffffffffffffffffffffffffffffffff1673ffffffffffffffffffffffffffffffffffffffff1673ffffffffffffffffffffffffffffffffffffffff168152505090506000600b600083600001518152602001908152602001600020905060018081111561252257612521614bd4565b5b8160000160169054906101000a900460ff16600181111561254657612545614bd4565b5b1461257d576040517fcb18af4e00000000000000000000000000000000000000000000000000000000815260040160405180910390fd5b6001600381111561259157612590614bd4565b5b8160040160008460200151815260200190815260200160002060020160019054906101000a900460ff1660038111156125cd576125cc614bd4565b5b148061262557506003808111156125e7576125e6614bd4565b5b8160040160008460200151815260200190815260200160002060020160019054906101000a900460ff16600381111561262357612622614bd4565b5b145b1561265c576040517f477dc77e00000000000000000000000000000000000000000000000000000000815260040160405180910390fd5b600060038111156126705761266f614bd4565b5b8160040160008460200151815260200190815260200160002060020160019054906101000a900460ff1660038111156126ac576126ab614bd4565b5b036126e3576040517f0d027e4d00000000000000000000000000000000000000000000000000000000815260040160405180910390fd5b6000600b60008460000151815260200190815260200160002060040160008460200151815260200190815260200160002060010154905081600101600081548092919061272f906156e5565b91905055506000600b60008560000151815260200190815260200160002060040160008560200151815260200190815260200160002060020160016101000a81548160ff0219169083600381111561278a57612789614bd4565b5b02179055506000600f6000856000015181526020019081526020016000206000856040015173ffffffffffffffffffffffffffffffffffffffff1673ffffffffffffffffffffffffffffffffffffffff16815260200190815260200160002060006101000a81548160ff0219169083600181111561280b5761280a614bd4565b5b021790555061285a600d60003373ffffffffffffffffffffffffffffffffffffffff1673ffffffffffffffffffffffffffffffffffffffff1681526020019081526020016000206009546133ea565b600c600085815260200190815260200160002060008082016000905560018201600090556002820160006101000a81549073ffffffffffffffffffffffffffffffffffffffff021916905550506128b084613e8d565b60003373ffffffffffffffffffffffffffffffffffffffff166128e283600660159054906101000a900460ff16613cb2565b6040516128ee9061581f565b60006040518083038185875af1925050503d806000811461292b576040519150601f19603f3d011682016040523d82523d6000602084013e612930565b606091505b505090508061296b576040517ff0c49d4400000000000000000000000000000000000000000000000000000000815260040160405180910390fd5b847f81a9339e192f17a2544892f6f54b4b2c4d16184d3ac5cbcd45146fe360d753af60405160405180910390a25050505050565b600660009054906101000a900473ffffffffffffffffffffffffffffffffffffffff1673ffffffffffffffffffffffffffffffffffffffff163373ffffffffffffffffffffffffffffffffffffffff1614612a26576040517f30cd747100000000000000000000000000000000000000000000000000000000815260040160405180910390fd5b60648160ff161115612a64576040517f0bbac80400000000000000000000000000000000000000000000000000000000815260040160405180910390fd5b80600660156101000a81548160ff021916908360ff16021790555050565b612a93612a8d613565565b836138c9565b612ad2576040517f08c379a0000000000000000000000000000000000000000000000000000000008152600401612ac99061579f565b60405180910390fd5b612ade84848484613fdb565b50505050565b600660009054906101000a900473ffffffffffffffffffffffffffffffffffffffff1673ffffffffffffffffffffffffffffffffffffffff163373ffffffffffffffffffffffffffffffffffffffff1614612b6b576040517f30cd747100000000000000000000000000000000000000000000000000000000815260040160405180910390fd5b600180811115612b7e57612b7d614bd4565b5b600b600083815260200190815260200160002060000160169054906101000a900460ff166001811115612bb457612bb3614bd4565b5b03612beb576040517f4330ffd700000000000000000000000000000000000000000000000000000000815260040160405180910390fd5b6001600b600083815260200190815260200160002060000160166101000a81548160ff02191690836001811115612c2557612c24614bd4565b5b0217905550600a819080600181540180825580915050600190039060005260206000200160009091909190915055807f54563f476dd5ad0979b77721b6254b7ca5d325d71c9caeedc99dcf3fed9061b060405160405180910390a250565b6060612c8e8261351a565b6000612c98614037565b90506000815111612cb85760405180602001604052806000815250612ce3565b80612cc28461404e565b604051602001612cd39291906159c0565b6040516020818303038152906040525b915050919050565b600080600660009054906101000a900473ffffffffffffffffffffffffffffffffffffffff1673ffffffffffffffffffffffffffffffffffffffff163373ffffffffffffffffffffffffffffffffffffffff1614612d75576040517f30cd747100000000000000000000000000000000000000000000000000000000815260040160405180910390fd5b600660159054906101000a900460ff16600660149054906101000a900460ff16915091509091565b600a8181548110612dad57600080fd5b906000526020600020016000915090505481565b6000600560008473ffffffffffffffffffffffffffffffffffffffff1673ffffffffffffffffffffffffffffffffffffffff16815260200190815260200160002060008373ffffffffffffffffffffffffffffffffffffffff1673ffffffffffffffffffffffffffffffffffffffff16815260200190815260200160002060009054906101000a900460ff16905092915050565b600660009054906101000a900473ffffffffffffffffffffffffffffffffffffffff1673ffffffffffffffffffffffffffffffffffffffff163373ffffffffffffffffffffffffffffffffffffffff1614612edc576040517f30cd747100000000000000000000000000000000000000000000000000000000815260040160405180910390fd5b600073ffffffffffffffffffffffffffffffffffffffff168173ffffffffffffffffffffffffffffffffffffffff1603612f42576040517fb5b383ad00000000000000000000000000000000000000000000000000000000815260040160405180910390fd5b80600660006101000a81548173ffffffffffffffffffffffffffffffffffffffff021916908373ffffffffffffffffffffffffffffffffffffffff16021790555050565b600660009054906101000a900473ffffffffffffffffffffffffffffffffffffffff1673ffffffffffffffffffffffffffffffffffffffff163373ffffffffffffffffffffffffffffffffffffffff161461300d576040517f30cd747100000000000000000000000000000000000000000000000000000000815260040160405180910390fd5b6000815103613048576040517fc0727f4200000000000000000000000000000000000000000000000000000000815260040160405180910390fd5b6007600081548092919061305b906156e5565b91905055506000600b600060075481526020019081526020016000209050858160000160006101000a81548162ffffff021916908362ffffff160217905550848160000160036101000a81548162ffffff021916908362ffffff160217905550838160000160066101000a81548167ffffffffffffffff021916908367ffffffffffffffff1602179055508281600001600e6101000a81548167ffffffffffffffff021916908367ffffffffffffffff16021790555060018160000160166101000a81548160ff0219169083600181111561313957613138614bd4565b5b0217905550815181600101819055508151816002018190555060005b8251811015613373576000838281518110613173576131726157bf565b5b602002602001015160200151036131b6576040517f08081d0d00000000000000000000000000000000000000000000000000000000815260040160405180910390fd5b600860008154809291906131c9906156e5565b919050555060405180608001604052808483815181106131ec576131eb6157bf565b5b602002602001015160000151600581111561320a57613209614bd4565b5b8152602001848381518110613222576132216157bf565b5b6020026020010151602001518152602001848381518110613246576132456157bf565b5b60200260200101516040015160ff16815260200184838151811061326d5761326c6157bf565b5b602002602001015160600151600381111561328b5761328a614bd4565b5b815250826004016000600854815260200190815260200160002060008201518160000160006101000a81548160ff021916908360058111156132d0576132cf614bd4565b5b02179055506020820151816001015560408201518160020160006101000a81548160ff021916908360ff16021790555060608201518160020160016101000a81548160ff0219169083600381111561332b5761332a614bd4565b5b0217905550905050816003016008549080600181540180825580915050600190039060005260206000200160009091909190915055808061336b906156e5565b915050613155565b50600a60075490806001815401808255809150506001900390600052602060002001600090919091909150556007547ffd6eafd698cf383301b67868e89f6cea23fc1a5ae41fca5202b433a36b2a96248787878787516040516133da9594939291906159e4565b60405180910390a2505050505050565b60005b82805490508110156134ab578183828154811061340d5761340c6157bf565b5b90600052602060002001540361349857826001848054905061342f9190615a37565b815481106134405761343f6157bf565b5b906000526020600020015483828154811061345e5761345d6157bf565b5b90600052602060002001819055508280548061347d5761347c615a6b565b5b600190038181906000526020600020016000905590556134ab565b80806134a3906156e5565b9150506133ed565b505050565b60007f01ffc9a7000000000000000000000000000000000000000000000000000000007bffffffffffffffffffffffffffffffffffffffffffffffffffffffff1916827bffffffffffffffffffffffffffffffffffffffffffffffffffffffff1916149050919050565b6135238161411c565b613562576040517f08c379a000000000000000000000000000000000000000000000000000000000815260040161355990615880565b60405180910390fd5b50565b600033905090565b816004600083815260200190815260200160002060006101000a81548173ffffffffffffffffffffffffffffffffffffffff021916908373ffffffffffffffffffffffffffffffffffffffff160217905550808273ffffffffffffffffffffffffffffffffffffffff166135e0836115fc565b73ffffffffffffffffffffffffffffffffffffffff167f8c5be1e5ebec7d5bd14f71427d1e84f3dd0314c0f7b2291e5b200ac8c7c3b92560405160405180910390a45050565b8173ffffffffffffffffffffffffffffffffffffffff16613646846115fc565b73ffffffffffffffffffffffffffffffffffffffff1614613693576040517fd5dbc92400000000000000000000000000000000000000000000000000000000815260040160405180910390fd5b600073ffffffffffffffffffffffffffffffffffffffff168173ffffffffffffffffffffffffffffffffffffffff16036136f9576040517fb5b383ad00000000000000000000000000000000000000000000000000000000815260040160405180910390fd5b6000600c60008581526020019081526020016000209050818160020160006101000a81548173ffffffffffffffffffffffffffffffffffffffff021916908373ffffffffffffffffffffffffffffffffffffffff1602179055506000600f60008360000154815260200190815260200160002060008573ffffffffffffffffffffffffffffffffffffffff1673ffffffffffffffffffffffffffffffffffffffff16815260200190815260200160002060006101000a81548160ff021916908360018111156137cb576137ca614bd4565b5b02179055506001600f60008360000154815260200190815260200160002060008473ffffffffffffffffffffffffffffffffffffffff1673ffffffffffffffffffffffffffffffffffffffff16815260200190815260200160002060006101000a81548160ff0219169083600181111561384857613847614bd4565b5b021790555061386883838660405180602001604052806000815250613fdb565b8173ffffffffffffffffffffffffffffffffffffffff168373ffffffffffffffffffffffffffffffffffffffff16857f6778fbe6fb827f5c3c7e00ae4fb48f225b4adb569692355e16e9209c131f659c60405160405180910390a450505050565b6000806138d5836115fc565b90508073ffffffffffffffffffffffffffffffffffffffff168473ffffffffffffffffffffffffffffffffffffffff16148061391757506139168185612dc1565b5b8061395557508373ffffffffffffffffffffffffffffffffffffffff1661393d84610af7565b73ffffffffffffffffffffffffffffffffffffffff16145b91505092915050565b8273ffffffffffffffffffffffffffffffffffffffff1661397e826115fc565b73ffffffffffffffffffffffffffffffffffffffff16146139d4576040517f08c379a00000000000000000000000000000000000000000000000000000000081526004016139cb90615b0c565b60405180910390fd5b600073ffffffffffffffffffffffffffffffffffffffff168273ffffffffffffffffffffffffffffffffffffffff1603613a43576040517f08c379a0000000000000000000000000000000000000000000000000000000008152600401613a3a90615b9e565b60405180910390fd5b613a50838383600161415d565b8273ffffffffffffffffffffffffffffffffffffffff16613a70826115fc565b73ffffffffffffffffffffffffffffffffffffffff1614613ac6576040517f08c379a0000000000000000000000000000000000000000000000000000000008152600401613abd90615b0c565b60405180910390fd5b6004600082815260200190815260200160002060006101000a81549073ffffffffffffffffffffffffffffffffffffffff02191690556001600360008573ffffffffffffffffffffffffffffffffffffffff1673ffffffffffffffffffffffffffffffffffffffff168152602001908152602001600020600082825403925050819055506001600360008473ffffffffffffffffffffffffffffffffffffffff1673ffffffffffffffffffffffffffffffffffffffff16815260200190815260200160002060008282540192505081905550816002600083815260200190815260200160002060006101000a81548173ffffffffffffffffffffffffffffffffffffffff021916908373ffffffffffffffffffffffffffffffffffffffff160217905550808273ffffffffffffffffffffffffffffffffffffffff168473ffffffffffffffffffffffffffffffffffffffff167fddf252ad1be2c89b69c2b068fc378daa952ba7f163c4a11628f55a4df523b3ef60405160405180910390a4613c528383836001614163565b505050565b60006002600083815260200190815260200160002060009054906101000a900473ffffffffffffffffffffffffffffffffffffffff169050919050565b613cae828260405180602001604052806000815250614169565b5050565b600060648260ff161115613cf2576040517f0bbac80400000000000000000000000000000000000000000000000000000000815260040160405180910390fd5b6064826064613d019190615bbe565b60ff1684613d0f9190615bf3565b613d199190615c64565b905092915050565b8173ffffffffffffffffffffffffffffffffffffffff168373ffffffffffffffffffffffffffffffffffffffff1603613d8f576040517f08c379a0000000000000000000000000000000000000000000000000000000008152600401613d8690615ce1565b60405180910390fd5b80600560008573ffffffffffffffffffffffffffffffffffffffff1673ffffffffffffffffffffffffffffffffffffffff16815260200190815260200160002060008473ffffffffffffffffffffffffffffffffffffffff1673ffffffffffffffffffffffffffffffffffffffff16815260200190815260200160002060006101000a81548160ff0219169083151502179055508173ffffffffffffffffffffffffffffffffffffffff168373ffffffffffffffffffffffffffffffffffffffff167f17307eab39ab6107e8899845ad3d59bd9653f200f220920489ca2b5937696c3183604051613e80919061484b565b60405180910390a3505050565b6000613e98826115fc565b9050613ea881600084600161415d565b613eb1826115fc565b90506004600083815260200190815260200160002060006101000a81549073ffffffffffffffffffffffffffffffffffffffff02191690556001600360008373ffffffffffffffffffffffffffffffffffffffff1673ffffffffffffffffffffffffffffffffffffffff168152602001908152602001600020600082825403925050819055506002600083815260200190815260200160002060006101000a81549073ffffffffffffffffffffffffffffffffffffffff021916905581600073ffffffffffffffffffffffffffffffffffffffff168273ffffffffffffffffffffffffffffffffffffffff167fddf252ad1be2c89b69c2b068fc378daa952ba7f163c4a11628f55a4df523b3ef60405160405180910390a4613fd7816000846001614163565b5050565b613fe684848461395e565b613ff2848484846141c4565b614031576040517f08c379a000000000000000000000000000000000000000000000000000000000815260040161402890615d73565b60405180910390fd5b50505050565b606060405180602001604052806000815250905090565b60606000600161405d8461434b565b01905060008167ffffffffffffffff81111561407c5761407b61509d565b5b6040519080825280601f01601f1916602001820160405280156140ae5781602001600182028036833780820191505090505b509050600082602001820190505b600115614111578080600190039150507f3031323334353637383961626364656600000000000000000000000000000000600a86061a8153600a858161410557614104615c35565b5b049450600085036140bc575b819350505050919050565b60008073ffffffffffffffffffffffffffffffffffffffff1661413e83613c57565b73ffffffffffffffffffffffffffffffffffffffff1614159050919050565b50505050565b50505050565b614173838361449e565b61418060008484846141c4565b6141bf576040517f08c379a00000000000000000000000000000000000000000000000000000000081526004016141b690615d73565b60405180910390fd5b505050565b60006141e58473ffffffffffffffffffffffffffffffffffffffff166146bb565b1561433e578373ffffffffffffffffffffffffffffffffffffffff1663150b7a0261420e613565565b8786866040518563ffffffff1660e01b81526004016142309493929190615de8565b6020604051808303816000875af192505050801561426c57506040513d601f19601f820116820180604052508101906142699190615e49565b60015b6142ee573d806000811461429c576040519150601f19603f3d011682016040523d82523d6000602084013e6142a1565b606091505b5060008151036142e6576040517f08c379a00000000000000000000000000000000000000000000000000000000081526004016142dd90615d73565b60405180910390fd5b805181602001fd5b63150b7a0260e01b7bffffffffffffffffffffffffffffffffffffffffffffffffffffffff1916817bffffffffffffffffffffffffffffffffffffffffffffffffffffffff191614915050614343565b600190505b949350505050565b600080600090507a184f03e93ff9f4daa797ed6e38ed64bf6a1f01000000000000000083106143a9577a184f03e93ff9f4daa797ed6e38ed64bf6a1f010000000000000000838161439f5761439e615c35565b5b0492506040810190505b6d04ee2d6d415b85acef810000000083106143e6576d04ee2d6d415b85acef810000000083816143dc576143db615c35565b5b0492506020810190505b662386f26fc10000831061441557662386f26fc10000838161440b5761440a615c35565b5b0492506010810190505b6305f5e100831061443e576305f5e100838161443457614433615c35565b5b0492506008810190505b612710831061446357612710838161445957614458615c35565b5b0492506004810190505b60648310614486576064838161447c5761447b615c35565b5b0492506002810190505b600a8310614495576001810190505b80915050919050565b600073ffffffffffffffffffffffffffffffffffffffff168273ffffffffffffffffffffffffffffffffffffffff160361450d576040517f08c379a000000000000000000000000000000000000000000000000000000000815260040161450490615ec2565b60405180910390fd5b6145168161411c565b15614556576040517f08c379a000000000000000000000000000000000000000000000000000000000815260040161454d90615f2e565b60405180910390fd5b61456460008383600161415d565b61456d8161411c565b156145ad576040517f08c379a00000000000000000000000000000000000000000000000000000000081526004016145a490615f2e565b60405180910390fd5b6001600360008473ffffffffffffffffffffffffffffffffffffffff1673ffffffffffffffffffffffffffffffffffffffff16815260200190815260200160002060008282540192505081905550816002600083815260200190815260200160002060006101000a81548173ffffffffffffffffffffffffffffffffffffffff021916908373ffffffffffffffffffffffffffffffffffffffff160217905550808273ffffffffffffffffffffffffffffffffffffffff16600073ffffffffffffffffffffffffffffffffffffffff167fddf252ad1be2c89b69c2b068fc378daa952ba7f163c4a11628f55a4df523b3ef60405160405180910390a46146b7600083836001614163565b5050565b6000808273ffffffffffffffffffffffffffffffffffffffff163b119050919050565b6040518060a00160405280600060058111156146fd576146fc614bd4565b5b81526020016000815260200160008152602001600060ff1681526020016000600381111561472e5761472d614bd4565b5b81525090565b6000604051905090565b600080fd5b600080fd5b6000819050919050565b61475b81614748565b811461476657600080fd5b50565b60008135905061477881614752565b92915050565b6000602082840312156147945761479361473e565b5b60006147a284828501614769565b91505092915050565b60007fffffffff0000000000000000000000000000000000000000000000000000000082169050919050565b6147e0816147ab565b81146147eb57600080fd5b50565b6000813590506147fd816147d7565b92915050565b6000602082840312156148195761481861473e565b5b6000614827848285016147ee565b91505092915050565b60008115159050919050565b61484581614830565b82525050565b6000602082019050614860600083018461483c565b92915050565b600081519050919050565b600082825260208201905092915050565b60005b838110156148a0578082015181840152602081019050614885565b60008484015250505050565b6000601f19601f8301169050919050565b60006148c882614866565b6148d28185614871565b93506148e2818560208601614882565b6148eb816148ac565b840191505092915050565b6000602082019050818103600083015261491081846148bd565b905092915050565b600073ffffffffffffffffffffffffffffffffffffffff82169050919050565b600061494382614918565b9050919050565b61495381614938565b82525050565b600060208201905061496e600083018461494a565b92915050565b61497d81614938565b811461498857600080fd5b50565b60008135905061499a81614974565b92915050565b600080604083850312156149b7576149b661473e565b5b60006149c58582860161498b565b92505060206149d685828601614769565b9150509250929050565b600080604083850312156149f7576149f661473e565b5b6000614a0585828601614769565b9250506020614a168582860161498b565b9150509250929050565b600081519050919050565b600082825260208201905092915050565b6000819050602082019050919050565b614a5581614748565b82525050565b6000614a678383614a4c565b60208301905092915050565b6000602082019050919050565b6000614a8b82614a20565b614a958185614a2b565b9350614aa083614a3c565b8060005b83811015614ad1578151614ab88882614a5b565b9750614ac383614a73565b925050600181019050614aa4565b5085935050505092915050565b60006020820190508181036000830152614af88184614a80565b905092915050565b60008060408385031215614b1757614b1661473e565b5b6000614b2585828601614769565b9250506020614b3685828601614769565b9150509250929050565b600080600060608486031215614b5957614b5861473e565b5b6000614b678682870161498b565b9350506020614b788682870161498b565b9250506040614b8986828701614769565b9150509250925092565b600062ffffff82169050919050565b614bab81614b93565b82525050565b600067ffffffffffffffff82169050919050565b614bce81614bb1565b82525050565b7f4e487b7100000000000000000000000000000000000000000000000000000000600052602160045260246000fd5b60028110614c1457614c13614bd4565b5b50565b6000819050614c2582614c03565b919050565b6000614c3582614c17565b9050919050565b614c4581614c2a565b82525050565b614c5481614748565b82525050565b600060e082019050614c6f600083018a614ba2565b614c7c6020830189614ba2565b614c896040830188614bc5565b614c966060830187614bc5565b614ca36080830186614c3c565b614cb060a0830185614c4b565b614cbd60c0830184614c4b565b98975050505050505050565b600081519050919050565b600082825260208201905092915050565b6000819050602082019050919050565b60068110614d0657614d05614bd4565b5b50565b6000819050614d1782614cf5565b919050565b6000614d2782614d09565b9050919050565b614d3781614d1c565b82525050565b600060ff82169050919050565b614d5381614d3d565b82525050565b60048110614d6a57614d69614bd4565b5b50565b6000819050614d7b82614d59565b919050565b6000614d8b82614d6d565b9050919050565b614d9b81614d80565b82525050565b60a082016000820151614db76000850182614d2e565b506020820151614dca6020850182614a4c565b506040820151614ddd6040850182614a4c565b506060820151614df06060850182614d4a565b506080820151614e036080850182614d92565b50505050565b6000614e158383614da1565b60a08301905092915050565b6000602082019050919050565b6000614e3982614cc9565b614e438185614cd4565b9350614e4e83614ce5565b8060005b83811015614e7f578151614e668882614e09565b9750614e7183614e21565b925050600181019050614e52565b5085935050505092915050565b60006020820190508181036000830152614ea68184614e2e565b905092915050565b614eb781614d3d565b8114614ec257600080fd5b50565b600081359050614ed481614eae565b92915050565b600060208284031215614ef057614eef61473e565b5b6000614efe84828501614ec5565b91505092915050565b600060208284031215614f1d57614f1c61473e565b5b6000614f2b8482850161498b565b91505092915050565b6000602082019050614f496000830184614c4b565b92915050565b614f5881614d1c565b82525050565b614f6781614d3d565b82525050565b614f7681614d80565b82525050565b600061016082019050614f92600083018e614c4b565b614f9f602083018d614ba2565b614fac604083018c614ba2565b614fb9606083018b614bc5565b614fc6608083018a614bc5565b614fd360a0830189614c3c565b614fe060c0830188614f4f565b614fed60e0830187614c4b565b614ffb610100830186614c4b565b615009610120830185614f5e565b615017610140830184614f6d565b9c9b505050505050505050505050565b61503081614830565b811461503b57600080fd5b50565b60008135905061504d81615027565b92915050565b6000806040838503121561506a5761506961473e565b5b60006150788582860161498b565b92505060206150898582860161503e565b9150509250929050565b600080fd5b600080fd5b7f4e487b7100000000000000000000000000000000000000000000000000000000600052604160045260246000fd5b6150d5826148ac565b810181811067ffffffffffffffff821117156150f4576150f361509d565b5b80604052505050565b6000615107614734565b905061511382826150cc565b919050565b600067ffffffffffffffff8211156151335761513261509d565b5b61513c826148ac565b9050602081019050919050565b82818337600083830152505050565b600061516b61516684615118565b6150fd565b90508281526020810184848401111561518757615186615098565b5b615192848285615149565b509392505050565b600082601f8301126151af576151ae615093565b5b81356151bf848260208601615158565b91505092915050565b600080600080608085870312156151e2576151e161473e565b5b60006151f08782880161498b565b94505060206152018782880161498b565b935050604061521287828801614769565b925050606085013567ffffffffffffffff81111561523357615232614743565b5b61523f8782880161519a565b91505092959194509250565b60006040820190506152606000830185614f5e565b61526d6020830184614f5e565b9392505050565b6000806040838503121561528b5761528a61473e565b5b60006152998582860161498b565b92505060206152aa8582860161498b565b9150509250929050565b6152bd81614b93565b81146152c857600080fd5b50565b6000813590506152da816152b4565b92915050565b6152e981614bb1565b81146152f457600080fd5b50565b600081359050615306816152e0565b92915050565b600067ffffffffffffffff8211156153275761532661509d565b5b602082029050602081019050919050565b600080fd5b600080fd5b6006811061534f57600080fd5b50565b60008135905061536181615342565b92915050565b6004811061537457600080fd5b50565b60008135905061538681615367565b92915050565b6000608082840312156153a2576153a161533d565b5b6153ac60806150fd565b905060006153bc84828501615352565b60008301525060206153d084828501614769565b60208301525060406153e484828501614ec5565b60408301525060606153f884828501615377565b60608301525092915050565b60006154176154128461530c565b6150fd565b9050808382526020820190506080840283018581111561543a57615439615338565b5b835b81811015615463578061544f888261538c565b84526020840193505060808101905061543c565b5050509392505050565b600082601f83011261548257615481615093565b5b8135615492848260208601615404565b91505092915050565b600080600080600060a086880312156154b7576154b661473e565b5b60006154c5888289016152cb565b95505060206154d6888289016152cb565b94505060406154e7888289016152f7565b93505060606154f8888289016152f7565b925050608086013567ffffffffffffffff81111561551957615518614743565b5b6155258882890161546d565b9150509295509295909350565b7f4e487b7100000000000000000000000000000000000000000000000000000000600052602260045260246000fd5b6000600282049050600182168061557957607f821691505b60208210810361558c5761558b615532565b5b50919050565b7f4552433732313a20617070726f76616c20746f2063757272656e74206f776e6560008201527f7200000000000000000000000000000000000000000000000000000000000000602082015250565b60006155ee602183614871565b91506155f982615592565b604082019050919050565b6000602082019050818103600083015261561d816155e1565b9050919050565b7f4552433732313a20617070726f76652063616c6c6572206973206e6f7420746f60008201527f6b656e206f776e6572206f7220617070726f76656420666f7220616c6c000000602082015250565b6000615680603d83614871565b915061568b82615624565b604082019050919050565b600060208201905081810360008301526156af81615673565b9050919050565b7f4e487b7100000000000000000000000000000000000000000000000000000000600052601160045260246000fd5b60006156f082614748565b91507fffffffffffffffffffffffffffffffffffffffffffffffffffffffffffffffff8203615722576157216156b6565b5b600182019050919050565b7f4552433732313a2063616c6c6572206973206e6f7420746f6b656e206f776e6560008201527f72206f7220617070726f76656400000000000000000000000000000000000000602082015250565b6000615789602d83614871565b91506157948261572d565b604082019050919050565b600060208201905081810360008301526157b88161577c565b9050919050565b7f4e487b7100000000000000000000000000000000000000000000000000000000600052603260045260246000fd5b600081905092915050565b50565b60006158096000836157ee565b9150615814826157f9565b600082019050919050565b600061582a826157fc565b9150819050919050565b7f4552433732313a20696e76616c696420746f6b656e2049440000000000000000600082015250565b600061586a601883614871565b915061587582615834565b602082019050919050565b600060208201905081810360008301526158998161585d565b9050919050565b7f4552433732313a2061646472657373207a65726f206973206e6f74206120766160008201527f6c6964206f776e65720000000000000000000000000000000000000000000000602082015250565b60006158fc602983614871565b9150615907826158a0565b604082019050919050565b6000602082019050818103600083015261592b816158ef565b9050919050565b600061593d82614748565b9150600082036159505761594f6156b6565b5b600182039050919050565b60006040820190506159706000830185614c4b565b61597d602083018461494a565b9392505050565b600081905092915050565b600061599a82614866565b6159a48185615984565b93506159b4818560208601614882565b80840191505092915050565b60006159cc828561598f565b91506159d8828461598f565b91508190509392505050565b600060a0820190506159f96000830188614ba2565b615a066020830187614ba2565b615a136040830186614bc5565b615a206060830185614bc5565b615a2d6080830184614c4b565b9695505050505050565b6000615a4282614748565b9150615a4d83614748565b9250828203905081811115615a6557615a646156b6565b5b92915050565b7f4e487b7100000000000000000000000000000000000000000000000000000000600052603160045260246000fd5b7f4552433732313a207472616e736665722066726f6d20696e636f72726563742060008201527f6f776e6572000000000000000000000000000000000000000000000000000000602082015250565b6000615af6602583614871565b9150615b0182615a9a565b604082019050919050565b60006020820190508181036000830152615b2581615ae9565b9050919050565b7f4552433732313a207472616e7366657220746f20746865207a65726f2061646460008201527f7265737300000000000000000000000000000000000000000000000000000000602082015250565b6000615b88602483614871565b9150615b9382615b2c565b604082019050919050565b60006020820190508181036000830152615bb781615b7b565b9050919050565b6000615bc982614d3d565b9150615bd483614d3d565b9250828203905060ff811115615bed57615bec6156b6565b5b92915050565b6000615bfe82614748565b9150615c0983614748565b9250828202615c1781614748565b91508282048414831517615c2e57615c2d6156b6565b5b5092915050565b7f4e487b7100000000000000000000000000000000000000000000000000000000600052601260045260246000fd5b6000615c6f82614748565b9150615c7a83614748565b925082615c8a57615c89615c35565b5b828204905092915050565b7f4552433732313a20617070726f766520746f2063616c6c657200000000000000600082015250565b6000615ccb601983614871565b9150615cd682615c95565b602082019050919050565b60006020820190508181036000830152615cfa81615cbe565b9050919050565b7f4552433732313a207472616e7366657220746f206e6f6e20455243373231526560008201527f63656976657220696d706c656d656e7465720000000000000000000000000000602082015250565b6000615d5d603283614871565b9150615d6882615d01565b604082019050919050565b60006020820190508181036000830152615d8c81615d50565b9050919050565b600081519050919050565b600082825260208201905092915050565b6000615dba82615d93565b615dc48185615d9e565b9350615dd4818560208601614882565b615ddd816148ac565b840191505092915050565b6000608082019050615dfd600083018761494a565b615e0a602083018661494a565b615e176040830185614c4b565b8181036060830152615e298184615daf565b905095945050505050565b600081519050615e43816147d7565b92915050565b600060208284031215615e5f57615e5e61473e565b5b6000615e6d84828501615e34565b91505092915050565b7f4552433732313a206d696e7420746f20746865207a65726f2061646472657373600082015250565b6000615eac602083614871565b9150615eb782615e76565b602082019050919050565b60006020820190508181036000830152615edb81615e9f565b9050919050565b7f4552433732313a20746f6b656e20616c7265616479206d696e74656400000000600082015250565b6000615f18601c83614871565b9150615f2382615ee2565b602082019050919050565b60006020820190508181036000830152615f4781615f0b565b905091905056fea26469706673582212207e5ff4b8013830663f094d61efd29454b42de47b47348a505adab4e28f278fbc64736f6c63430008120033",
  "linkReferences": {},
  "deployedLinkReferences": {}
}